{
  "address": "0x6Aa37dF2392007209C54A2162beF21623705dC22",
  "abi": [
    {
      "inputs": [
        {
          "internalType": "address",
          "name": "admin",
          "type": "address"
        },
        {
          "internalType": "contract ISoulboundIdentity",
          "name": "_soulBoundIdentity",
          "type": "address"
        },
        {
          "internalType": "uint256",
          "name": "_nameRegistrationPricePerYear",
          "type": "uint256"
        },
        {
          "components": [
            {
              "internalType": "address",
              "name": "swapRouter",
              "type": "address"
            },
            {
              "internalType": "address",
              "name": "wrappedNativeToken",
              "type": "address"
            },
            {
              "internalType": "address",
              "name": "stableCoin",
              "type": "address"
            },
            {
              "internalType": "address",
              "name": "masaToken",
              "type": "address"
            },
            {
              "internalType": "address",
              "name": "projectFeeReceiver",
              "type": "address"
            },
            {
              "internalType": "address",
              "name": "protocolFeeReceiver",
              "type": "address"
            },
            {
              "internalType": "uint256",
              "name": "protocolFeeAmount",
              "type": "uint256"
            },
            {
              "internalType": "uint256",
              "name": "protocolFeePercent",
              "type": "uint256"
            }
          ],
          "internalType": "struct PaymentGateway.PaymentParams",
          "name": "paymentParams",
          "type": "tuple"
        }
      ],
      "stateMutability": "nonpayable",
      "type": "constructor"
    },
    {
      "inputs": [],
      "name": "AlreadyAdded",
      "type": "error"
    },
    {
      "inputs": [
        {
          "internalType": "address",
          "name": "authority",
          "type": "address"
        }
      ],
      "name": "AuthorityNotExists",
      "type": "error"
    },
    {
      "inputs": [
        {
          "internalType": "uint256",
          "name": "amount",
          "type": "uint256"
        }
      ],
      "name": "InsufficientEthAmount",
      "type": "error"
    },
    {
      "inputs": [
        {
          "internalType": "address",
          "name": "paymentMethod",
          "type": "address"
        }
      ],
      "name": "InvalidPaymentMethod",
      "type": "error"
    },
    {
      "inputs": [],
      "name": "InvalidSignature",
      "type": "error"
    },
    {
      "inputs": [
        {
          "internalType": "address",
          "name": "token",
          "type": "address"
        }
      ],
      "name": "InvalidToken",
      "type": "error"
    },
    {
      "inputs": [
        {
          "internalType": "address",
          "name": "erc20token",
          "type": "address"
        }
      ],
      "name": "NonExistingErc20Token",
      "type": "error"
    },
    {
      "inputs": [
        {
          "internalType": "address",
          "name": "signer",
          "type": "address"
        }
      ],
      "name": "NotAuthorized",
      "type": "error"
    },
    {
      "inputs": [],
      "name": "PaymentParamsNotSet",
      "type": "error"
    },
    {
      "inputs": [],
      "name": "ProtocolFeeReceiverNotSet",
      "type": "error"
    },
    {
      "inputs": [],
      "name": "RefundFailed",
      "type": "error"
    },
    {
      "inputs": [],
      "name": "SameValue",
      "type": "error"
    },
    {
      "inputs": [],
      "name": "TransferFailed",
      "type": "error"
    },
    {
      "inputs": [],
      "name": "UserMustHaveProtocolOrProjectAdminRole",
      "type": "error"
    },
    {
      "inputs": [],
      "name": "ZeroAddress",
      "type": "error"
    },
    {
      "anonymous": false,
      "inputs": [
        {
          "indexed": false,
          "internalType": "address",
          "name": "account",
          "type": "address"
        }
      ],
      "name": "Paused",
      "type": "event"
    },
    {
      "anonymous": false,
      "inputs": [
        {
          "indexed": true,
          "internalType": "bytes32",
          "name": "role",
          "type": "bytes32"
        },
        {
          "indexed": true,
          "internalType": "bytes32",
          "name": "previousAdminRole",
          "type": "bytes32"
        },
        {
          "indexed": true,
          "internalType": "bytes32",
          "name": "newAdminRole",
          "type": "bytes32"
        }
      ],
      "name": "RoleAdminChanged",
      "type": "event"
    },
    {
      "anonymous": false,
      "inputs": [
        {
          "indexed": true,
          "internalType": "bytes32",
          "name": "role",
          "type": "bytes32"
        },
        {
          "indexed": true,
          "internalType": "address",
          "name": "account",
          "type": "address"
        },
        {
          "indexed": true,
          "internalType": "address",
          "name": "sender",
          "type": "address"
        }
      ],
      "name": "RoleGranted",
      "type": "event"
    },
    {
      "anonymous": false,
      "inputs": [
        {
          "indexed": true,
          "internalType": "bytes32",
          "name": "role",
          "type": "bytes32"
        },
        {
          "indexed": true,
          "internalType": "address",
          "name": "account",
          "type": "address"
        },
        {
          "indexed": true,
          "internalType": "address",
          "name": "sender",
          "type": "address"
        }
      ],
      "name": "RoleRevoked",
      "type": "event"
    },
    {
      "anonymous": false,
      "inputs": [
        {
          "indexed": true,
          "internalType": "address",
          "name": "account",
          "type": "address"
        },
        {
          "indexed": false,
          "internalType": "uint256",
          "name": "tokenId",
          "type": "uint256"
        },
        {
          "indexed": true,
          "internalType": "string",
          "name": "name",
          "type": "string"
        },
        {
          "indexed": false,
          "internalType": "uint256",
          "name": "yearsPeriod",
          "type": "uint256"
        }
      ],
      "name": "SoulNamePurchased",
      "type": "event"
    },
    {
      "anonymous": false,
      "inputs": [
        {
          "indexed": true,
          "internalType": "address",
          "name": "account",
          "type": "address"
        },
        {
          "indexed": false,
          "internalType": "uint256",
          "name": "tokenId",
          "type": "uint256"
        },
        {
          "indexed": true,
          "internalType": "string",
          "name": "name",
          "type": "string"
        },
        {
          "indexed": false,
          "internalType": "uint256",
          "name": "yearsPeriod",
          "type": "uint256"
        }
      ],
      "name": "SoulboundIdentityAndNamePurchased",
      "type": "event"
    },
    {
      "anonymous": false,
      "inputs": [
        {
          "indexed": true,
          "internalType": "address",
          "name": "account",
          "type": "address"
        },
        {
          "indexed": false,
          "internalType": "uint256",
          "name": "tokenId",
          "type": "uint256"
        }
      ],
      "name": "SoulboundIdentityPurchased",
      "type": "event"
    },
    {
      "anonymous": false,
      "inputs": [
        {
          "indexed": false,
          "internalType": "address",
          "name": "account",
          "type": "address"
        }
      ],
      "name": "Unpaused",
      "type": "event"
    },
    {
      "inputs": [],
      "name": "DEFAULT_ADMIN_ROLE",
      "outputs": [
        {
          "internalType": "bytes32",
          "name": "",
          "type": "bytes32"
        }
      ],
      "stateMutability": "view",
      "type": "function"
    },
    {
      "inputs": [],
      "name": "PROJECT_ADMIN_ROLE",
      "outputs": [
        {
          "internalType": "bytes32",
          "name": "",
          "type": "bytes32"
        }
      ],
      "stateMutability": "view",
      "type": "function"
    },
    {
      "inputs": [
        {
          "internalType": "address",
          "name": "_authority",
          "type": "address"
        }
      ],
      "name": "addAuthority",
      "outputs": [],
      "stateMutability": "nonpayable",
      "type": "function"
    },
    {
      "inputs": [
        {
          "internalType": "address",
          "name": "",
          "type": "address"
        }
      ],
      "name": "authorities",
      "outputs": [
        {
          "internalType": "bool",
          "name": "",
          "type": "bool"
        }
      ],
      "stateMutability": "view",
      "type": "function"
    },
    {
      "inputs": [
        {
          "internalType": "address",
          "name": "_paymentMethod",
          "type": "address"
        }
      ],
      "name": "disablePaymentMethod",
      "outputs": [],
      "stateMutability": "nonpayable",
      "type": "function"
    },
    {
      "inputs": [
        {
          "internalType": "address",
          "name": "_paymentMethod",
          "type": "address"
        }
      ],
      "name": "enablePaymentMethod",
      "outputs": [],
      "stateMutability": "nonpayable",
      "type": "function"
    },
    {
      "inputs": [
        {
          "internalType": "address",
          "name": "",
          "type": "address"
        }
      ],
      "name": "enabledPaymentMethod",
      "outputs": [
        {
          "internalType": "bool",
          "name": "",
          "type": "bool"
        }
      ],
      "stateMutability": "view",
      "type": "function"
    },
    {
      "inputs": [
        {
          "internalType": "uint256",
          "name": "",
          "type": "uint256"
        }
      ],
      "name": "enabledPaymentMethods",
      "outputs": [
        {
          "internalType": "address",
          "name": "",
          "type": "address"
        }
      ],
      "stateMutability": "view",
      "type": "function"
    },
    {
      "inputs": [],
      "name": "getEnabledPaymentMethods",
      "outputs": [
        {
          "internalType": "address[]",
          "name": "",
          "type": "address[]"
        }
      ],
      "stateMutability": "view",
      "type": "function"
    },
    {
      "inputs": [
        {
          "internalType": "uint256",
          "name": "nameLength",
          "type": "uint256"
        }
      ],
      "name": "getNameRegistrationPricePerYear",
      "outputs": [
        {
          "internalType": "uint256",
          "name": "",
          "type": "uint256"
        }
      ],
      "stateMutability": "view",
      "type": "function"
    },
    {
      "inputs": [
        {
          "internalType": "address",
          "name": "paymentMethod",
          "type": "address"
        },
        {
          "internalType": "uint256",
          "name": "nameLength",
          "type": "uint256"
        },
        {
          "internalType": "uint256",
          "name": "yearsPeriod",
          "type": "uint256"
        }
      ],
      "name": "getPriceForMintingName",
      "outputs": [
        {
          "internalType": "uint256",
          "name": "price",
          "type": "uint256"
        }
      ],
      "stateMutability": "view",
      "type": "function"
    },
    {
      "inputs": [
        {
          "internalType": "address",
          "name": "paymentMethod",
          "type": "address"
        },
        {
          "internalType": "uint256",
          "name": "nameLength",
          "type": "uint256"
        },
        {
          "internalType": "uint256",
          "name": "yearsPeriod",
          "type": "uint256"
        }
      ],
      "name": "getPriceForMintingNameWithProtocolFee",
      "outputs": [
        {
          "internalType": "uint256",
          "name": "price",
          "type": "uint256"
        },
        {
          "internalType": "uint256",
          "name": "protocolFee",
          "type": "uint256"
        }
      ],
      "stateMutability": "view",
      "type": "function"
    },
    {
      "inputs": [
        {
          "internalType": "address",
          "name": "paymentMethod",
          "type": "address"
        },
        {
          "internalType": "uint256",
          "name": "amount",
          "type": "uint256"
        }
      ],
      "name": "getProtocolFee",
      "outputs": [
        {
          "internalType": "uint256",
          "name": "",
          "type": "uint256"
        }
      ],
      "stateMutability": "view",
      "type": "function"
    },
    {
      "inputs": [
        {
          "internalType": "bytes32",
          "name": "role",
          "type": "bytes32"
        }
      ],
      "name": "getRoleAdmin",
      "outputs": [
        {
          "internalType": "bytes32",
          "name": "",
          "type": "bytes32"
        }
      ],
      "stateMutability": "view",
      "type": "function"
    },
    {
      "inputs": [
        {
          "internalType": "bytes32",
          "name": "role",
          "type": "bytes32"
        },
        {
          "internalType": "address",
          "name": "account",
          "type": "address"
        }
      ],
      "name": "grantRole",
      "outputs": [],
      "stateMutability": "nonpayable",
      "type": "function"
    },
    {
      "inputs": [
        {
          "internalType": "bytes32",
          "name": "role",
          "type": "bytes32"
        },
        {
          "internalType": "address",
          "name": "account",
          "type": "address"
        }
      ],
      "name": "hasRole",
      "outputs": [
        {
          "internalType": "bool",
          "name": "",
          "type": "bool"
        }
      ],
      "stateMutability": "view",
      "type": "function"
    },
    {
      "inputs": [],
      "name": "masaToken",
      "outputs": [
        {
          "internalType": "address",
          "name": "",
          "type": "address"
        }
      ],
      "stateMutability": "view",
      "type": "function"
    },
    {
      "inputs": [
        {
          "internalType": "uint256",
          "name": "",
          "type": "uint256"
        }
      ],
      "name": "nameRegistrationPricePerYear",
      "outputs": [
        {
          "internalType": "uint256",
          "name": "",
          "type": "uint256"
        }
      ],
      "stateMutability": "view",
      "type": "function"
    },
    {
      "inputs": [],
      "name": "pause",
      "outputs": [],
      "stateMutability": "nonpayable",
      "type": "function"
    },
    {
      "inputs": [],
      "name": "paused",
      "outputs": [
        {
          "internalType": "bool",
          "name": "",
          "type": "bool"
        }
      ],
      "stateMutability": "view",
      "type": "function"
    },
    {
      "inputs": [],
      "name": "projectFeeReceiver",
      "outputs": [
        {
          "internalType": "address",
          "name": "",
          "type": "address"
        }
      ],
      "stateMutability": "view",
      "type": "function"
    },
    {
      "inputs": [],
      "name": "protocolFeeAmount",
      "outputs": [
        {
          "internalType": "uint256",
          "name": "",
          "type": "uint256"
        }
      ],
      "stateMutability": "view",
      "type": "function"
    },
    {
      "inputs": [],
      "name": "protocolFeePercent",
      "outputs": [
        {
          "internalType": "uint256",
          "name": "",
          "type": "uint256"
        }
      ],
      "stateMutability": "view",
      "type": "function"
    },
    {
      "inputs": [],
      "name": "protocolFeeReceiver",
      "outputs": [
        {
          "internalType": "address",
          "name": "",
          "type": "address"
        }
      ],
      "stateMutability": "view",
      "type": "function"
    },
    {
      "inputs": [],
      "name": "purchaseIdentity",
      "outputs": [
        {
          "internalType": "uint256",
          "name": "",
          "type": "uint256"
        }
      ],
      "stateMutability": "nonpayable",
      "type": "function"
    },
    {
      "inputs": [
        {
          "internalType": "address",
          "name": "paymentMethod",
          "type": "address"
        }
      ],
      "name": "purchaseIdentity",
      "outputs": [
        {
          "internalType": "uint256",
          "name": "",
          "type": "uint256"
        }
      ],
      "stateMutability": "nonpayable",
      "type": "function"
    },
    {
      "inputs": [
        {
          "internalType": "address",
          "name": "paymentMethod",
          "type": "address"
        },
        {
          "internalType": "string",
          "name": "name",
          "type": "string"
        },
        {
          "internalType": "uint256",
          "name": "nameLength",
          "type": "uint256"
        },
        {
          "internalType": "uint256",
          "name": "yearsPeriod",
          "type": "uint256"
        },
        {
          "internalType": "string",
          "name": "tokenURI",
          "type": "string"
        },
        {
          "internalType": "address",
          "name": "authorityAddress",
          "type": "address"
        },
        {
          "internalType": "bytes",
          "name": "signature",
          "type": "bytes"
        }
      ],
      "name": "purchaseIdentityAndName",
      "outputs": [
        {
          "internalType": "uint256",
          "name": "",
          "type": "uint256"
        }
      ],
      "stateMutability": "payable",
      "type": "function"
    },
    {
      "inputs": [
        {
          "internalType": "address",
          "name": "paymentMethod",
          "type": "address"
        },
        {
          "internalType": "address",
          "name": "to",
          "type": "address"
        },
        {
          "internalType": "string",
          "name": "name",
          "type": "string"
        },
        {
          "internalType": "uint256",
          "name": "nameLength",
          "type": "uint256"
        },
        {
          "internalType": "uint256",
          "name": "yearsPeriod",
          "type": "uint256"
        },
        {
          "internalType": "string",
          "name": "tokenURI",
          "type": "string"
        },
        {
          "internalType": "address",
          "name": "authorityAddress",
          "type": "address"
        },
        {
          "internalType": "bytes",
          "name": "signature",
          "type": "bytes"
        }
      ],
      "name": "purchaseName",
      "outputs": [
        {
          "internalType": "uint256",
          "name": "",
          "type": "uint256"
        }
      ],
      "stateMutability": "payable",
      "type": "function"
    },
    {
      "inputs": [
        {
          "internalType": "address",
          "name": "_authority",
          "type": "address"
        }
      ],
      "name": "removeAuthority",
      "outputs": [],
      "stateMutability": "nonpayable",
      "type": "function"
    },
    {
      "inputs": [
        {
          "internalType": "bytes32",
          "name": "role",
          "type": "bytes32"
        },
        {
          "internalType": "address",
          "name": "account",
          "type": "address"
        }
      ],
      "name": "renounceRole",
      "outputs": [],
      "stateMutability": "nonpayable",
      "type": "function"
    },
    {
      "inputs": [
        {
          "internalType": "bytes32",
          "name": "role",
          "type": "bytes32"
        },
        {
          "internalType": "address",
          "name": "account",
          "type": "address"
        }
      ],
      "name": "revokeRole",
      "outputs": [],
      "stateMutability": "nonpayable",
      "type": "function"
    },
    {
      "inputs": [
        {
          "internalType": "address",
          "name": "_masaToken",
          "type": "address"
        }
      ],
      "name": "setMasaToken",
      "outputs": [],
      "stateMutability": "nonpayable",
      "type": "function"
    },
    {
      "inputs": [
        {
          "internalType": "uint256",
          "name": "_nameLength",
          "type": "uint256"
        },
        {
          "internalType": "uint256",
          "name": "_nameRegistrationPricePerYear",
          "type": "uint256"
        }
      ],
      "name": "setNameRegistrationPricePerYear",
      "outputs": [],
      "stateMutability": "nonpayable",
      "type": "function"
    },
    {
      "inputs": [
        {
          "internalType": "address",
          "name": "_projectFeeReceiver",
          "type": "address"
        }
      ],
      "name": "setProjectFeeReceiver",
      "outputs": [],
      "stateMutability": "nonpayable",
      "type": "function"
    },
    {
      "inputs": [
        {
          "internalType": "uint256",
          "name": "_protocolFeeAmount",
          "type": "uint256"
        }
      ],
      "name": "setProtocolFeeAmount",
      "outputs": [],
      "stateMutability": "nonpayable",
      "type": "function"
    },
    {
      "inputs": [
        {
          "internalType": "uint256",
          "name": "_protocolFeePercent",
          "type": "uint256"
        }
      ],
      "name": "setProtocolFeePercent",
      "outputs": [],
      "stateMutability": "nonpayable",
      "type": "function"
    },
    {
      "inputs": [
        {
          "internalType": "address",
          "name": "_protocolFeeReceiver",
          "type": "address"
        }
      ],
      "name": "setProtocolFeeReceiver",
      "outputs": [],
      "stateMutability": "nonpayable",
      "type": "function"
    },
    {
      "inputs": [
        {
          "internalType": "contract ISoulboundIdentity",
          "name": "_soulboundIdentity",
          "type": "address"
        }
      ],
      "name": "setSoulboundIdentity",
      "outputs": [],
      "stateMutability": "nonpayable",
      "type": "function"
    },
    {
      "inputs": [
        {
          "internalType": "address",
          "name": "_stableCoin",
          "type": "address"
        }
      ],
      "name": "setStableCoin",
      "outputs": [],
      "stateMutability": "nonpayable",
      "type": "function"
    },
    {
      "inputs": [
        {
          "internalType": "address",
          "name": "_swapRouter",
          "type": "address"
        }
      ],
      "name": "setSwapRouter",
      "outputs": [],
      "stateMutability": "nonpayable",
      "type": "function"
    },
    {
      "inputs": [
        {
          "internalType": "address",
          "name": "_wrappedNativeToken",
          "type": "address"
        }
      ],
      "name": "setWrappedNativeToken",
      "outputs": [],
      "stateMutability": "nonpayable",
      "type": "function"
    },
    {
      "inputs": [],
      "name": "soulboundIdentity",
      "outputs": [
        {
          "internalType": "contract ISoulboundIdentity",
          "name": "",
          "type": "address"
        }
      ],
      "stateMutability": "view",
      "type": "function"
    },
    {
      "inputs": [],
      "name": "stableCoin",
      "outputs": [
        {
          "internalType": "address",
          "name": "",
          "type": "address"
        }
      ],
      "stateMutability": "view",
      "type": "function"
    },
    {
      "inputs": [
        {
          "internalType": "bytes4",
          "name": "interfaceId",
          "type": "bytes4"
        }
      ],
      "name": "supportsInterface",
      "outputs": [
        {
          "internalType": "bool",
          "name": "",
          "type": "bool"
        }
      ],
      "stateMutability": "view",
      "type": "function"
    },
    {
      "inputs": [],
      "name": "swapRouter",
      "outputs": [
        {
          "internalType": "address",
          "name": "",
          "type": "address"
        }
      ],
      "stateMutability": "view",
      "type": "function"
    },
    {
      "inputs": [],
      "name": "unpause",
      "outputs": [],
      "stateMutability": "nonpayable",
      "type": "function"
    },
    {
      "inputs": [],
      "name": "wrappedNativeToken",
      "outputs": [
        {
          "internalType": "address",
          "name": "",
          "type": "address"
        }
      ],
      "stateMutability": "view",
      "type": "function"
    }
  ],
  "transactionHash": "0xcc11ec79cae185b88ab38d0963be0db428bb1d1fd553a1103a411feccd8b0505",
  "args": [
    "0x47d640442215b49f22FC227488d2e840E10fff4D",
    "0x7ab73C2F083B2725E5b6e245E6EA945d5f3CaaeA",
    "10000000",
    [
      "0x1b02dA8Cb0d097eB8D57A175b88c7D8b47997506",
      "0x0d500B1d8E8eF31E21C99d1Db9A6444d3ADf1270",
      "0x2791Bca1f2de4661ED88A30C99A7a9449Aa84174",
      "0x0000000000000000000000000000000000000000",
      "0x3CE0aa6b475E3B9B9Eb64c10e1409c0b3Ff37153",
      "0x0000000000000000000000000000000000000000",
      "0",
      "0"
    ]
  ],
  "numDeployments": 1,
  "solcInputHash": "3868686b21c41d2efeddac2776654491",
  "bytecode": "0x6101406040523480156200001257600080fd5b5060405162003df938038062003df9833981016040819052620000359162000407565b8383838360405180604001604052806009815260200168536f756c53746f726560b81b815250604051806040016040528060058152602001640312e302e360dc1b8152508583620000906000801b836200021860201b60201c565b8051600180546001600160a01b03199081166001600160a01b0393841617825560208085015160028054841691861691909117905560408501516003805484169186169190911790556060850151600480548416918616919091179055608085015160078054841691861691909117905560a0808601516008805490941695169490941790915560c084015160095560e093840151600a55600b805460ff19169055600c91909155855186820120855191860191909120928190526101008390524690915291507f8b73c3c69bb8fe3d512ecc4cf759cc79239f7b179b0ffacaa9a75d522b39400f62000185818484620002a1565b6080523060601b60c05261012052505050506001600160a01b038316620001bf5760405163d92e233d60e01b815260040160405180910390fd5b50600d80546001600160a01b0319166001600160a01b03939093169290921790915560008052600e6020527fe710864318d4a32f37d6ce54cb3fadbef648dd12d8dbdf53973564d56b7f881c5550620005939350505050565b620002248282620002dd565b6200029d576000828152602081815260408083206001600160a01b03851684529091529020805460ff191660011790556200025c3390565b6001600160a01b0316816001600160a01b0316837f2f8788117e7eff1d82e926ec794901d17c78024a50270940304540a733656f0d60405160405180910390a45b5050565b60008383834630604051602001620002be9594939291906200048e565b6040516020818303038152906040528051906020012090509392505050565b6000828152602081815260408083206001600160a01b038516845290915290205460ff165b92915050565b8051620003028162000567565b8051620003028162000581565b600061010082840312156200033a576200033a600080fd5b62000347610100620004e4565b9050600062000357848462000308565b82525060206200036a8484830162000308565b6020830152506040620003808482850162000308565b6040830152506060620003968482850162000308565b6060830152506080620003ac8482850162000308565b60808301525060a0620003c28482850162000308565b60a08301525060c0620003d884828501620003fa565b60c08301525060e0620003ee84828501620003fa565b60e08301525092915050565b805162000302816200058c565b6000806000806101608587031215620004235762000423600080fd5b600062000431878762000308565b9450506020620004448782880162000315565b93505060406200045787828801620003fa565b92505060606200046a8782880162000322565b91505092959194509250565b620004818162000503565b82525050565b8062000481565b60a081016200049e828862000487565b620004ad602083018762000487565b620004bc604083018662000487565b620004cb606083018562000487565b620004da608083018462000476565b9695505050505050565b6000620004f060405190565b9050620004fe828262000522565b919050565b60006001600160a01b03821662000302565b6000620003028262000503565b601f19601f83011681018181106001600160401b03821117156200054a576200054a62000551565b6040525050565b634e487b7160e01b600052604160045260246000fd5b620005728162000503565b81146200057e57600080fd5b50565b620005728162000515565b8062000572565b60805160a05160c05160601c60e0516101005161012051613813620005e660003960006125ae015260006125f0015260006125cf015260006125330152600061255d0152600061258701526138136000f3fe6080604052600436106102175760003560e01c8062bdfde51461021c57806301ffc9a71461023e5780630513c3e91461027457806310200519146102a157806312553e41146102c357806317fcb39b146102e5578063217a2c7b1461030557806323af4e1714610325578063248a9ca31461034557806326defa73146103655780632f2ff15d146103855780633151ded8146103a557806332e40884146103d357806336568abe146103f357806339a51be5146104135780633ad3033e146104335780633f4ba83a14610453578063412736571461046857806341c04d5e1461048857806346877b1a146104aa5780634e273d21146104ca5780635a394675146104ea5780635c975abb146104fd57806374a99f8b1461051557806376ad19971461053557806377bed5ed146105555780637a0d1646146105825780638456cb59146105b25780638d018461146105c75780638ec9c93b146105e757806390ce8416146105fd57806391223d691461061d57806391d148541461064d57806394a665e91461066d578063992642e51461068d57806399b589cb146106ad578063a217fddf146106cd578063a4983421146106e2578063c31c9c0714610702578063c86aadb614610722578063d544e01014610742578063d547741f14610762578063d6e6eb9f14610782578063da058ae314610798578063eaf94aec146107b8578063ebda4396146107e5578063f615283a14610805575b600080fd5b34801561022857600080fd5b5061023c610237366004612dab565b610818565b005b34801561024a57600080fd5b5061025e610259366004612dff565b61084c565b60405161026b9190613379565b60405180910390f35b34801561028057600080fd5b5061029461028f366004612dab565b610883565b60405161026b9190613288565b3480156102ad57600080fd5b506102b66108ad565b60405161026b9190613368565b3480156102cf57600080fd5b506102d861090f565b60405161026b9190613387565b3480156102f157600080fd5b50600254610294906001600160a01b031681565b34801561031157600080fd5b506102d8610320366004612cc3565b610920565b34801561033157600080fd5b5061023c610340366004612aac565b610933565b34801561035157600080fd5b506102d8610360366004612dab565b610990565b34801561037157600080fd5b5061023c610380366004612aac565b6109a5565b34801561039157600080fd5b5061023c6103a0366004612dcc565b610a75565b3480156103b157600080fd5b506103c56103c0366004612d00565b610a96565b60405161026b929190613554565b3480156103df57600080fd5b506102d86103ee366004612aac565b610abd565b3480156103ff57600080fd5b5061023c61040e366004612dcc565b610aea565b34801561041f57600080fd5b50600854610294906001600160a01b031681565b34801561043f57600080fd5b5061023c61044e366004612e41565b610b29565b34801561045f57600080fd5b5061023c610bad565b34801561047457600080fd5b5061023c610483366004612aac565b610bc3565b34801561049457600080fd5b506102d86000805160206137be83398151915281565b3480156104b657600080fd5b5061023c6104c5366004612aac565b610c20565b3480156104d657600080fd5b506102d86104e5366004612dab565b610c7d565b6102d86104f8366004612acd565b610cc2565b34801561050957600080fd5b50600b5460ff1661025e565b34801561052157600080fd5b5061023c610530366004612e83565b610d1c565b34801561054157600080fd5b5061023c610550366004612aac565b610da8565b34801561056157600080fd5b50600d54610575906001600160a01b031681565b60405161026b9190613465565b34801561058e57600080fd5b5061025e61059d366004612aac565b60056020526000908152604090205460ff1681565b3480156105be57600080fd5b5061023c610e05565b3480156105d357600080fd5b5061023c6105e2366004612aac565b610e18565b3480156105f357600080fd5b506102d860095481565b34801561060957600080fd5b506102d8610618366004612d00565b610eb4565b34801561062957600080fd5b5061025e610638366004612aac565b600f6020526000908152604090205460ff1681565b34801561065957600080fd5b5061025e610668366004612dcc565b610f71565b34801561067957600080fd5b5061023c610688366004612aac565b610f9a565b34801561069957600080fd5b50600354610294906001600160a01b031681565b3480156106b957600080fd5b50600754610294906001600160a01b031681565b3480156106d957600080fd5b506102d8600081565b3480156106ee57600080fd5b5061023c6106fd366004612dab565b611107565b34801561070e57600080fd5b50600154610294906001600160a01b031681565b34801561072e57600080fd5b5061023c61073d366004612aac565b61113b565b34801561074e57600080fd5b5061023c61075d366004612aac565b6111e7565b34801561076e57600080fd5b5061023c61077d366004612dcc565b6112b5565b34801561078e57600080fd5b506102d8600a5481565b3480156107a457600080fd5b5061023c6107b3366004612aac565b6112d1565b3480156107c457600080fd5b506102d86107d3366004612dab565b600e6020526000908152604090205481565b3480156107f157600080fd5b50600454610294906001600160a01b031681565b6102d8610813366004612bd2565b61132e565b600061082381611388565b6009548214156108465760405163c23f6ccb60e01b815260040160405180910390fd5b50600955565b60006001600160e01b03198216637965db0b60e01b148061087d57506301ffc9a760e01b6001600160e01b03198316145b92915050565b6006818154811061089357600080fd5b6000918252602090912001546001600160a01b0316905081565b6060600680548060200260200160405190810160405280929190818152602001828054801561090557602002820191906000526020600020905b81546001600160a01b031681526001909101906020018083116108e7575b5050505050905090565b600061091b6000610abd565b905090565b600061092c8383611392565b9392505050565b600061093e81611388565b6003546001600160a01b038381169116141561096d5760405163c23f6ccb60e01b815260040160405180910390fd5b50600380546001600160a01b0319166001600160a01b0392909216919091179055565b60009081526020819052604090206001015490565b6109b0600033610f71565b1580156109d257506109d06000805160206137be83398151915233610f71565b155b156109f0576040516326f0f48160e01b815260040160405180910390fd5b6001600160a01b038116610a175760405163d92e233d60e01b815260040160405180910390fd5b6001600160a01b0381166000908152600f602052604090205460ff1615610a515760405163f411c32760e01b815260040160405180910390fd5b6001600160a01b03166000908152600f60205260409020805460ff19166001179055565b610a7e82610990565b610a8781611388565b610a918383611407565b505050565b600080610aa4858585610eb4565b915081610ab18684611392565b91509150935093915050565b6000610ac761148b565b610acf6114b0565b610ad982336114da565b9050610ae56001600c55565b919050565b6001600160a01b0381163314610b1b5760405162461bcd60e51b8152600401610b1290613524565b60405180910390fd5b610b2582826115ad565b5050565b6000610b3481611388565b6001600160a01b038216610b5b5760405163d92e233d60e01b815260040160405180910390fd5b600d546001600160a01b0383811691161415610b8a5760405163c23f6ccb60e01b815260040160405180910390fd5b50600d80546001600160a01b0319166001600160a01b0392909216919091179055565b6000610bb881611388565b610bc0611612565b50565b6000610bce81611388565b6001546001600160a01b0383811691161415610bfd5760405163c23f6ccb60e01b815260040160405180910390fd5b50600180546001600160a01b0319166001600160a01b0392909216919091179055565b6000610c2b81611388565b6008546001600160a01b0383811691161415610c5a5760405163c23f6ccb60e01b815260040160405180910390fd5b50600880546001600160a01b0319166001600160a01b0392909216919091179055565b6000818152600e60205260408120548061087d5750506000805250600e6020527fe710864318d4a32f37d6ce54cb3fadbef648dd12d8dbdf53973564d56b7f881c5490565b6000610ccc61148b565b610cd46114b0565b600080610ce28c8a8a610a96565b91509150610cf18c838361165e565b610d018b8b8b8b8b8b8b8b611a1b565b92505050610d0f6001600c55565b9998505050505050505050565b610d27600033610f71565b158015610d495750610d476000805160206137be83398151915233610f71565b155b15610d67576040516326f0f48160e01b815260040160405180910390fd5b6000828152600e6020526040902054811415610d965760405163c23f6ccb60e01b815260040160405180910390fd5b6000918252600e602052604090912055565b6000610db381611388565b6004546001600160a01b0383811691161415610de25760405163c23f6ccb60e01b815260040160405180910390fd5b50600480546001600160a01b0319166001600160a01b0392909216919091179055565b6000610e1081611388565b610bc0611bd9565b610e23600033610f71565b158015610e455750610e436000805160206137be83398151915233610f71565b155b15610e63576040516326f0f48160e01b815260040160405180910390fd5b6007546001600160a01b0382811691161415610e925760405163c23f6ccb60e01b815260040160405180910390fd5b600780546001600160a01b0319166001600160a01b0392909216919091179055565b600080610eca83610ec486610c7d565b90611c16565b905080610eda5760009150610f69565b6003546001600160a01b038681169116148015610f0f57506001600160a01b03851660009081526005602052604090205460ff165b15610f1c57809150610f69565b6001600160a01b03851660009081526005602052604090205460ff1615610f4e57610f478582611c22565b9150610f69565b84604051630ac29ab760e31b8152600401610b129190613288565b509392505050565b6000918252602082815260408084206001600160a01b0393909316845291905290205460ff1690565b6000610fa581611388565b6001600160a01b03821660009081526005602052604090205460ff16610fe057816040516318317bd560e01b8152600401610b129190613288565b6001600160a01b0382166000908152600560205260408120805460ff191690555b600654811015610a9157826001600160a01b0316600682815481106110285761102861374c565b6000918252602090912001546001600160a01b031614156110f557600680546110539060019061361f565b815481106110635761106361374c565b600091825260209091200154600680546001600160a01b03909216918390811061108f5761108f61374c565b9060005260206000200160006101000a8154816001600160a01b0302191690836001600160a01b0316021790555060068054806110ce576110ce613736565b600082815260209020810160001990810180546001600160a01b0319169055019055505050565b806110ff816136d9565b915050611001565b600061111281611388565b600a548214156111355760405163c23f6ccb60e01b815260040160405180910390fd5b50600a55565b600061114681611388565b6001600160a01b03821660009081526005602052604090205460ff16156111805760405163f411c32760e01b815260040160405180910390fd5b506001600160a01b03166000818152600560205260408120805460ff191660019081179091556006805491820181559091527ff652222313e28459528d920b65115c16c04f3efc82aaedc97be59f3f377c0d3f0180546001600160a01b0319169091179055565b6111f2600033610f71565b15801561121457506112126000805160206137be83398151915233610f71565b155b15611232576040516326f0f48160e01b815260040160405180910390fd5b6001600160a01b0381166112595760405163d92e233d60e01b815260040160405180910390fd5b6001600160a01b0381166000908152600f602052604090205460ff1661129457806040516324b1f80560e21b8152600401610b129190613288565b6001600160a01b03166000908152600f60205260409020805460ff19169055565b6112be82610990565b6112c781611388565b610a9183836115ad565b60006112dc81611388565b6002546001600160a01b038381169116141561130b5760405163c23f6ccb60e01b815260040160405180910390fd5b50600280546001600160a01b0319166001600160a01b0392909216919091179055565b600061133861148b565b6113406114b0565b60008061134e8b8a8a610a96565b9150915061135d8b838361165e565b61136e8b338c8c8c8c8c8c8c611db5565b9250505061137c6001600c55565b98975050505050505050565b610bc08133611ea5565b6009546000908190156113cd576003546001600160a01b03858116911614156113be57506009546113cd565b6113ca84600954611c22565b90505b600a541561092c576113ff6113f860646113f2600a5487611c1690919063ffffffff16565b90611efe565b8290611f0a565b949350505050565b6114118282610f71565b610b25576000828152602081815260408083206001600160a01b03851684529091529020805460ff191660011790556114473390565b6001600160a01b0316816001600160a01b0316837f2f8788117e7eff1d82e926ec794901d17c78024a50270940304540a733656f0d60405160405180910390a45050565b600b5460ff16156114ae5760405162461bcd60e51b8152600401610b12906134e4565b565b6002600c5414156114d35760405162461bcd60e51b8152600401610b1290613514565b6002600c55565b600d5460405163ee1fe2ad60e01b815260009182916001600160a01b039091169063ee1fe2ad906115119087908790600401613296565b602060405180830381600087803b15801561152b57600080fd5b505af115801561153f573d6000803e3d6000fd5b505050506040513d601f19601f820116820180604052508101906115639190612e62565b9050826001600160a01b03167fe6fdadff80ae44015b9aa37d4edb70f70a8db7535a0df98de6dc5ffd11ec0c2f8260405161159e9190613387565b60405180910390a29392505050565b6115b78282610f71565b15610b25576000828152602081815260408083206001600160a01b0385168085529252808320805460ff1916905551339285917ff6391f5c32d9c69d2a47ea670b442974b53935d1edc7fd64eb21e047a839171b9190a45050565b61161a611f16565b600b805460ff191690557f5db9ee0a495bf2e6ff9c91a7834c1ba4fdd244a5e8aa4e537bd38aeae4b073aa335b6040516116549190613288565b60405180910390a1565b6116688282611f0a565b60008111801561168157506001546001600160a01b0316155b1561169f5760405163fca2174f60e01b815260040160405180910390fd5b6000811180156116b857506002546001600160a01b0316155b156116d65760405163fca2174f60e01b815260040160405180910390fd5b6000811180156116ef57506003546001600160a01b0316155b1561170d5760405163fca2174f60e01b815260040160405180910390fd5b60008111801561172657506007546001600160a01b0316155b156117445760405163fca2174f60e01b815260040160405180910390fd5b82158015611750575081155b1561175a57611a15565b60008211801561177357506008546001600160a01b0316155b156117915760405163910af6f560e01b815260040160405180910390fd5b6001600160a01b03841660009081526005602052604090205460ff166117cc5783604051630ac29ab760e31b8152600401610b129190613288565b6001600160a01b0384166119d1576117e48383611f0a565b34101561180f576117f58383611f0a565b60405163091a6d0f60e01b8152600401610b129190613387565b8215611899576007546040516000916001600160a01b03169085906118339061322e565b60006040518083038185875af1925050503d8060008114611870576040519150601f19603f3d011682016040523d82523d6000602084013e611875565b606091505b5050905080611897576040516312171d8360e31b815260040160405180910390fd5b505b8115611923576008546040516000916001600160a01b03169084906118bd9061322e565b60006040518083038185875af1925050503d80600081146118fa576040519150601f19603f3d011682016040523d82523d6000602084013e6118ff565b606091505b5050905080611921576040516312171d8360e31b815260040160405180910390fd5b505b61192d8383611f0a565b3411156119cc57600061194a6119438585611f0a565b3490611f38565b90506000336001600160a01b0316826040516119659061322e565b60006040518083038185875af1925050503d80600081146119a2576040519150601f19603f3d011682016040523d82523d6000602084013e6119a7565b606091505b50509050806119c957604051633c31275160e21b815260040160405180910390fd5b50505b611a15565b82156119f3576007546119f3906001600160a01b038681169133911686611f44565b8115611a1557600854611a15906001600160a01b038681169133911685611f44565b50505050565b6000611a6b611a2d8a8a8a8a8a611f9c565b84848080601f016020809104026020016040519081016040528093929190818152602001838380828437600092019190915250899250612011915050565b600d546040805163b507d48160e01b815290516000926001600160a01b03169163b507d481916004808301926020929190829003018186803b158015611ab057600080fd5b505afa158015611ac4573d6000803e3d6000fd5b505050506040513d601f19601f82011682018060405250810190611ae89190612e20565b90506000816001600160a01b0316633dd904308c8c8b8b6040518563ffffffff1660e01b8152600401611b1e9493929190613327565b602060405180830381600087803b158015611b3857600080fd5b505af1158015611b4c573d6000803e3d6000fd5b505050506040513d601f19601f82011682018060405250810190611b709190612e62565b905089604051611b8091906131f1565b60405180910390208b6001600160a01b03167f32044e50415e96c0068a718b8df9993f4803b2e54518d56c52ef6438a91619aa838b604051611bc3929190613554565b60405180910390a39a9950505050505050505050565b611be161148b565b600b805460ff191660011790557f62e78cea01bee320cd4e420270b5ea74000d11b0c9f74754ebdbfc544b05a2586116473390565b600061092c8284613600565b600081600081118015611c3e57506001546001600160a01b0316155b15611c5c5760405163fca2174f60e01b815260040160405180910390fd5b600081118015611c7557506002546001600160a01b0316155b15611c935760405163fca2174f60e01b815260040160405180910390fd5b600081118015611cac57506003546001600160a01b0316155b15611cca5760405163fca2174f60e01b815260040160405180910390fd5b600081118015611ce357506007546001600160a01b0316155b15611d015760405163fca2174f60e01b815260040160405180910390fd5b6001600160a01b03841660009081526005602052604090205460ff161580611d3657506003546001600160a01b038581169116145b15611d56578360405163961c9a4f60e01b8152600401610b129190613288565b82611d645760009150611dae565b6001600160a01b038416611d9657600254600354611d8f916001600160a01b0390811691168561208c565b9150611dae565b600354611d8f9085906001600160a01b03168561208c565b5092915050565b6000611dc7611a2d8a8a8a8a8a611f9c565b600d546040516398acb9a960e01b81526000916001600160a01b0316906398acb9a990611e00908e908e908e908d908d906004016132b1565b602060405180830381600087803b158015611e1a57600080fd5b505af1158015611e2e573d6000803e3d6000fd5b505050506040513d601f19601f82011682018060405250810190611e529190612e62565b905088604051611e6291906131f1565b60405180910390208a6001600160a01b03167f60579b770d8bde9b5f57c468ffb4acb023252b190304137b45b86b72f66a1940838a604051611bc3929190613554565b611eaf8282610f71565b610b2557611ebc8161214a565b611ec783602061215c565b604051602001611ed8929190613236565b60408051601f198184030181529082905262461bcd60e51b8252610b1291600401613473565b600061092c82846135ec565b600061092c82846135d4565b600b5460ff166114ae5760405162461bcd60e51b8152600401610b12906134a4565b600061092c828461361f565b611a15846323b872dd60e01b858585604051602401611f65939291906132ff565b60408051601f198184030181529190526020810180516001600160e01b03166001600160e01b0319909316929092179091526122c7565b60006120057f7503a77cf463259868f167e5b04bb93b908e722f1d532d8a0635f83ea802a2c187878051906020012087878780519060200120604051602001611fea96959493929190613395565b60405160208183030381529060405280519060200120612356565b90505b95945050505050565b600061201d8484612369565b9050816001600160a01b0316816001600160a01b03161461205157604051638baa579f60e01b815260040160405180910390fd5b6001600160a01b0381166000908152600f602052604090205460ff16611a155780604051634a0bfec160e01b8152600401610b129190613288565b600060608061209b8686612385565b6001546040516307c0329d60e21b81529192506001600160a01b031690631f00ca74906120ce9087908590600401613534565b60006040518083038186803b1580156120e657600080fd5b505afa1580156120fa573d6000803e3d6000fd5b505050506040513d6000823e601f3d908101601f191682016040526121229190810190612d50565b9150816000815181106121375761213761374c565b6020026020010151925050509392505050565b606061087d6001600160a01b03831660145b6060600061216b836002613600565b6121769060026135d4565b6001600160401b0381111561218d5761218d613762565b6040519080825280601f01601f1916602001820160405280156121b7576020820181803683370190505b509050600360fc1b816000815181106121d2576121d261374c565b60200101906001600160f81b031916908160001a905350600f60fb1b816001815181106122015761220161374c565b60200101906001600160f81b031916908160001a9053506000612225846002613600565b6122309060016135d4565b90505b60018111156122a8576f181899199a1a9b1b9c1cb0b131b232b360811b85600f16601081106122645761226461374c565b1a60f81b82828151811061227a5761227a61374c565b60200101906001600160f81b031916908160001a90535060049490941c936122a181613695565b9050612233565b50831561092c5760405162461bcd60e51b8152600401610b1290613494565b600061231c826040518060400160405280602081526020017f5361666545524332303a206c6f772d6c6576656c2063616c6c206661696c6564815250856001600160a01b03166125179092919063ffffffff16565b805190915015610a91578080602001905181019061233a9190612d8a565b610a915760405162461bcd60e51b8152600401610b1290613504565b600061087d612363612526565b83612614565b60008060006123788585612647565b91509150610f698161268d565b6002546060906001600160a01b03848116911614806123b157506002546001600160a01b038381169116145b1561247b57604080516002808252606082018352600092602083019080368337019050506002549091506001600160a01b038581169116146123f35783612400565b6002546001600160a01b03165b816000815181106124135761241361374c565b6001600160a01b03928316602091820292909201015260025484821691161461243c5782612449565b6002546001600160a01b03165b8160018151811061245c5761245c61374c565b6001600160a01b0390921660209283029190910190910152905061087d565b604080516003808252608082019092526000916020820160608036833701905050905083816000815181106124b2576124b261374c565b6001600160a01b0392831660209182029290920101526002548251911690829060019081106124e3576124e361374c565b60200260200101906001600160a01b031690816001600160a01b031681525050828160028151811061245c5761245c61374c565b60606113ff8484600085612740565b6000306001600160a01b037f00000000000000000000000000000000000000000000000000000000000000001614801561257f57507f000000000000000000000000000000000000000000000000000000000000000046145b156125a957507f000000000000000000000000000000000000000000000000000000000000000090565b61091b7f00000000000000000000000000000000000000000000000000000000000000007f00000000000000000000000000000000000000000000000000000000000000007f00000000000000000000000000000000000000000000000000000000000000006127dc565b600082826040516020016126299291906131fd565b60405160208183030381529060405280519060200120905092915050565b60008082516041141561267e5760208301516040840151606085015160001a61267287828585612816565b94509450505050612686565b506000905060025b9250929050565b60008160048111156126a1576126a1613720565b14156126aa5750565b60018160048111156126be576126be613720565b14156126dc5760405162461bcd60e51b8152600401610b1290613484565b60028160048111156126f0576126f0613720565b141561270e5760405162461bcd60e51b8152600401610b12906134b4565b600381600481111561272257612722613720565b1415610bc05760405162461bcd60e51b8152600401610b12906134c4565b6060824710156127625760405162461bcd60e51b8152600401610b12906134d4565b600080866001600160a01b0316858760405161277e91906131f1565b60006040518083038185875af1925050503d80600081146127bb576040519150601f19603f3d011682016040523d82523d6000602084013e6127c0565b606091505b50915091506127d1878383876128c3565b979650505050505050565b600083838346306040516020016127f79594939291906133e4565b6040516020818303038152906040528051906020012090509392505050565b6000806fa2a8918ca85bafe22016d0b997e4df60600160ff1b0383111561284357506000905060036128ba565b6000600187878787604051600081526020016040526040516128689493929190613430565b6020604051602081039080840390855afa15801561288a573d6000803e3d6000fd5b5050604051601f1901519150506001600160a01b0381166128b3576000600192509250506128ba565b9150600090505b94509492505050565b606083156128ff5782516128f8576001600160a01b0385163b6128f85760405162461bcd60e51b8152600401610b12906134f4565b50816113ff565b6113ff83838151156129145781518083602001fd5b8060405162461bcd60e51b8152600401610b129190613473565b600061294161293c84613586565b61356f565b9050808382526020820190508285602086028201111561296357612963600080fd5b60005b8581101561298f57816129798882612aa1565b8452506020928301929190910190600101612966565b5050509392505050565b60006129a761293c846135a9565b9050828152602081018484840111156129c2576129c2600080fd5b610f6984828561365d565b803561087d81613782565b600082601f8301126129ec576129ec600080fd5b81516113ff84826020860161292e565b805161087d81613796565b803561087d8161379e565b803561087d816137a4565b60008083601f840112612a3257612a32600080fd5b5081356001600160401b03811115612a4c57612a4c600080fd5b60208301915083600182028301111561268657612686600080fd5b805161087d816137b4565b803561087d816137b4565b600082601f830112612a9157612a91600080fd5b81356113ff848260208601612999565b805161087d8161379e565b600060208284031215612ac157612ac1600080fd5b60006113ff84846129cd565b60008060008060008060008060006101008a8c031215612aef57612aef600080fd5b6000612afb8c8c6129cd565b9950506020612b0c8c828d016129cd565b98505060408a01356001600160401b03811115612b2b57612b2b600080fd5b612b378c828d01612a7d565b9750506060612b488c828d01612a07565b9650506080612b598c828d01612a07565b95505060a08a01356001600160401b03811115612b7857612b78600080fd5b612b848c828d01612a7d565b94505060c0612b958c828d016129cd565b93505060e08a01356001600160401b03811115612bb457612bb4600080fd5b612bc08c828d01612a1d565b92509250509295985092959850929598565b60008060008060008060008060e0898b031215612bf157612bf1600080fd5b6000612bfd8b8b6129cd565b98505060208901356001600160401b03811115612c1c57612c1c600080fd5b612c288b828c01612a7d565b9750506040612c398b828c01612a07565b9650506060612c4a8b828c01612a07565b95505060808901356001600160401b03811115612c6957612c69600080fd5b612c758b828c01612a7d565b94505060a0612c868b828c016129cd565b93505060c08901356001600160401b03811115612ca557612ca5600080fd5b612cb18b828c01612a1d565b92509250509295985092959890939650565b60008060408385031215612cd957612cd9600080fd5b6000612ce585856129cd565b9250506020612cf685828601612a07565b9150509250929050565b600080600060608486031215612d1857612d18600080fd5b6000612d2486866129cd565b9350506020612d3586828701612a07565b9250506040612d4686828701612a07565b9150509250925092565b600060208284031215612d6557612d65600080fd5b81516001600160401b03811115612d7e57612d7e600080fd5b6113ff848285016129d8565b600060208284031215612d9f57612d9f600080fd5b60006113ff84846129fc565b600060208284031215612dc057612dc0600080fd5b60006113ff8484612a07565b60008060408385031215612de257612de2600080fd5b6000612dee8585612a07565b9250506020612cf6858286016129cd565b600060208284031215612e1457612e14600080fd5b60006113ff8484612a12565b600060208284031215612e3557612e35600080fd5b60006113ff8484612a67565b600060208284031215612e5657612e56600080fd5b60006113ff8484612a72565b600060208284031215612e7757612e77600080fd5b60006113ff8484612aa1565b60008060408385031215612e9957612e99600080fd5b6000612ce58585612a07565b6000612eb18383612eb9565b505060200190565b612ec281613636565b82525050565b6000612ed2825190565b80845260209384019383018060005b83811015612f06578151612ef58882612ea5565b975060208301925050600101612ee1565b509495945050505050565b801515612ec2565b80612ec2565b6000612f29825190565b612f37818560208601613669565b9290920192915050565b612ec281613652565b6000612f54825190565b808452602084019350612f6b818560208601613669565b612f7481613778565b9093019392505050565b601881526000602082017745434453413a20696e76616c6964207369676e617475726560401b815291505b5060200190565b60208082527f537472696e67733a20686578206c656e67746820696e73756666696369656e7491019081526000612fa9565b601481526000602082017314185d5cd8589b194e881b9bdd081c185d5cd95960621b81529150612fa9565b601f81526000602082017f45434453413a20696e76616c6964207369676e6174757265206c656e6774680081529150612fa9565b602281526000602082017f45434453413a20696e76616c6964207369676e6174757265202773272076616c815261756560f01b602082015291505b5060400190565b602681526000602082017f416464726573733a20696e73756666696369656e742062616c616e636520666f8152651c8818d85b1b60d21b6020820152915061307c565b601081526000602082016f14185d5cd8589b194e881c185d5cd95960821b81529150612fa9565b601d81526000602082017f416464726573733a2063616c6c20746f206e6f6e2d636f6e747261637400000081529150612fa9565b602a81526000602082017f5361666545524332303a204552433230206f7065726174696f6e20646964206e8152691bdd081cdd58d8d9595960b21b6020820152915061307c565b601f81526000602082017f5265656e7472616e637947756172643a207265656e7472616e742063616c6c0081529150612fa9565b602f81526000602082017f416363657373436f6e74726f6c3a2063616e206f6e6c792072656e6f756e636581526e103937b632b9903337b91039b2b63360891b6020820152915061307c565b60ff8116612ec2565b600061092c8284612f1f565b61190160f01b815260020160006132148285612f19565b6020820191506132248284612f19565b5060200192915050565b60008161087d565b76020b1b1b2b9b9a1b7b73a3937b61d1030b1b1b7bab73a1604d1b815260170160006132628285612f1f565b7001034b99036b4b9b9b4b733903937b6329607d1b815260110191506113ff8284612f1f565b6020810161087d8284612eb9565b604081016132a48285612eb9565b61092c6020830184612eb9565b60a081016132bf8288612eb9565b6132cc6020830187612eb9565b81810360408301526132de8186612f4a565b90506132ed6060830185612f19565b81810360808301526127d18184612f4a565b6060810161330d8286612eb9565b61331a6020830185612eb9565b6113ff6040830184612f19565b608081016133358287612eb9565b81810360208301526133478186612f4a565b90506133566040830185612f19565b81810360608301526120058184612f4a565b6020808252810161092c8184612ec8565b6020810161087d8284612f11565b6020810161087d8284612f19565b60c081016133a38289612f19565b6133b06020830188612eb9565b6133bd6040830187612f19565b6133ca6060830186612f19565b6133d76080830185612f19565b6127d160a0830184612f19565b60a081016133f28288612f19565b6133ff6020830187612f19565b61340c6040830186612f19565b6134196060830185612f19565b6134266080830184612eb9565b9695505050505050565b6080810161343e8287612f19565b61344b60208301866131e8565b6134586040830185612f19565b6120086060830184612f19565b6020810161087d8284612f41565b6020808252810161092c8184612f4a565b6020808252810161087d81612f7e565b6020808252810161087d81612fb0565b6020808252810161087d81612fe2565b6020808252810161087d8161300d565b6020808252810161087d81613041565b6020808252810161087d81613083565b6020808252810161087d816130c6565b6020808252810161087d816130ed565b6020808252810161087d81613121565b6020808252810161087d81613168565b6020808252810161087d8161319c565b604081016135428285612f19565b81810360208301526113ff8184612ec8565b604081016135628285612f19565b61092c6020830184612f19565b600061357a60405190565b9050610ae582826136ac565b60006001600160401b0382111561359f5761359f613762565b5060209081020190565b60006001600160401b038211156135c2576135c2613762565b6135cb82613778565b60200192915050565b600082198211156135e7576135e76136f4565b500190565b6000826135fb576135fb61370a565b500490565b600081600019048311821515161561361a5761361a6136f4565b500290565b600082821015613631576136316136f4565b500390565b60006001600160a01b03821661087d565b600061087d82613636565b600061087d82613647565b82818337506000910152565b60005b8381101561368457818101518382015260200161366c565b83811115611a155750506000910152565b6000816136a4576136a46136f4565b506000190190565b6136b582613778565b81018181106001600160401b03821117156136d2576136d2613762565b6040525050565b60006000198214156136ed576136ed6136f4565b5060010190565b634e487b7160e01b600052601160045260246000fd5b634e487b7160e01b600052601260045260246000fd5b634e487b7160e01b600052602160045260246000fd5b634e487b7160e01b600052603160045260246000fd5b634e487b7160e01b600052603260045260246000fd5b634e487b7160e01b600052604160045260246000fd5b601f01601f191690565b61378b81613636565b8114610bc057600080fd5b80151561378b565b8061378b565b6001600160e01b0319811661378b565b61378b8161364756fe52eafc11f6f81f86878bffd31109a0d92f37506527754f00788853ff9f63b130a26469706673582212206138dc2f4c36d6b840d245694a6e56e6d12f7a211203738789ece4c3bcc2e64d64736f6c63430008070033",
  "devdoc": {
    "author": "Masa Finance",
    "details": "From this smart contract we can mint new Soulbound Identities and Soul Name NFTs. This minting can be done paying a fee in ETH, USDC or MASA",
    "kind": "dev",
    "methods": {
      "addAuthority(address)": {
        "details": "The caller must have the admin or project admin role to call this function",
        "params": {
          "_authority": "New authority to add"
        }
      },
      "constructor": {
        "details": "Creates a new Soul Store, that has the role to minting new Soulbound Identities and Soul Name NFTs, paying a fee",
        "params": {
          "_nameRegistrationPricePerYear": "Price of the default name registering in stable coin per year",
          "_soulBoundIdentity": "Address of the Soulbound identity contract",
          "admin": "Administrator of the smart contract",
          "paymentParams": "Payment gateway params"
        }
      },
      "disablePaymentMethod(address)": {
        "details": "The caller must have the admin role to call this function",
        "params": {
          "_paymentMethod": "Token to remove"
        }
      },
      "enablePaymentMethod(address)": {
        "details": "The caller must have the admin role to call this function",
        "params": {
          "_paymentMethod": "New token to add"
        }
      },
      "getEnabledPaymentMethods()": {
        "details": "Returns the address of all available payment methods",
        "returns": {
          "_0": "Array of all enabled payment methods"
        }
      },
      "getNameRegistrationPricePerYear(uint256)": {
        "details": "Returns the price for registering per year in USD for an specific name length",
        "params": {
          "nameLength": "Length of the name"
        },
        "returns": {
          "_0": "Price in stable coin for that name length"
        }
      },
      "getPriceForMintingName(address,uint256,uint256)": {
        "details": "Returns current pricing for name minting for a given name length and years period",
        "params": {
          "nameLength": "Length of the name",
          "paymentMethod": "Address of token that user want to pay",
          "yearsPeriod": "Years of validity of the name"
        },
        "returns": {
          "price": "Current price of the name minting in the given payment method"
        }
      },
      "getPriceForMintingNameWithProtocolFee(address,uint256,uint256)": {
        "details": "Returns current pricing for name minting for a given name length and years period with protocol fee",
        "params": {
          "nameLength": "Length of the name",
          "paymentMethod": "Address of token that user want to pay",
          "yearsPeriod": "Years of validity of the name"
        },
        "returns": {
          "price": "Current price of the name minting in the given payment method",
          "protocolFee": "Current protocol fee of the name minting in the given payment method"
        }
      },
      "getProtocolFee(address,uint256)": {
        "details": "This method will calculate the protocol fee based on the payment method",
        "params": {
          "amount": "Price to be paid in the specified payment method",
          "paymentMethod": "Address of token that user want to pay"
        }
      },
      "getRoleAdmin(bytes32)": {
        "details": "Returns the admin role that controls `role`. See {grantRole} and {revokeRole}. To change a role's admin, use {_setRoleAdmin}."
      },
      "grantRole(bytes32,address)": {
        "details": "Grants `role` to `account`. If `account` had not been already granted `role`, emits a {RoleGranted} event. Requirements: - the caller must have ``role``'s admin role. May emit a {RoleGranted} event."
      },
      "hasRole(bytes32,address)": {
        "details": "Returns `true` if `account` has been granted `role`."
      },
      "pause()": {
        "details": "The caller must have the admin role to call this function"
      },
      "paused()": {
        "details": "Returns true if the contract is paused, and false otherwise."
      },
      "purchaseIdentity()": {
        "details": "This function allows the purchase of a soulbound identity for free",
        "returns": {
          "_0": "TokenId of the new soulbound identity"
        }
      },
      "purchaseIdentity(address)": {
        "details": "This function allows the purchase of a soulbound identity for free",
        "params": {
          "paymentMethod": "Address of token that user want to pay"
        },
        "returns": {
          "_0": "TokenId of the new soulbound identity"
        }
      },
      "purchaseIdentityAndName(address,string,uint256,uint256,string,address,bytes)": {
        "details": "This function allows the purchase of a soulbound identity and name using stable coin (USDC), native token (ETH) or utility token (MASA)",
        "params": {
          "authorityAddress": "Address of the authority",
          "name": "Name of the new soul name",
          "nameLength": "Length of the name",
          "paymentMethod": "Address of token that user want to pay",
          "signature": "Signature of the authority",
          "tokenURI": "URI of the NFT",
          "yearsPeriod": "Years of validity of the name"
        },
        "returns": {
          "_0": "TokenId of the new soulbound identity"
        }
      },
      "purchaseName(address,address,string,uint256,uint256,string,address,bytes)": {
        "details": "This function allows the purchase of a soul name using stable coin (USDC), native token (ETH) or utility token (MASA)",
        "params": {
          "authorityAddress": "Address of the authority",
          "name": "Name of the new soul name",
          "nameLength": "Length of the name",
          "paymentMethod": "Address of token that user want to pay",
          "signature": "Signature of the authority",
          "to": "Address of the owner of the new soul name",
          "tokenURI": "URI of the NFT",
          "yearsPeriod": "Years of validity of the name"
        },
        "returns": {
          "_0": "TokenId of the new sou name"
        }
      },
      "removeAuthority(address)": {
        "details": "The caller must have the admin or project admin role to call this function",
        "params": {
          "_authority": "Authority to remove"
        }
      },
      "renounceRole(bytes32,address)": {
        "details": "Revokes `role` from the calling account. Roles are often managed via {grantRole} and {revokeRole}: this function's purpose is to provide a mechanism for accounts to lose their privileges if they are compromised (such as when a trusted device is misplaced). If the calling account had been revoked `role`, emits a {RoleRevoked} event. Requirements: - the caller must be `account`. May emit a {RoleRevoked} event."
      },
      "revokeRole(bytes32,address)": {
        "details": "Revokes `role` from `account`. If `account` had been granted `role`, emits a {RoleRevoked} event. Requirements: - the caller must have ``role``'s admin role. May emit a {RoleRevoked} event."
      },
      "setMasaToken(address)": {
        "details": "The caller must have the admin role to call this function It can be set to address(0) to disable paying in MASA",
        "params": {
          "_masaToken": "New utility token to pay the fee in"
        }
      },
      "setNameRegistrationPricePerYear(uint256,uint256)": {
        "details": "The caller must have the admin or project admin role to call this function",
        "params": {
          "_nameLength": "Length of the name",
          "_nameRegistrationPricePerYear": "New price of the name registering per one year in stable coin for that name length per year"
        }
      },
      "setProjectFeeReceiver(address)": {
        "details": "The caller must have the admin or project admin role to call this function",
        "params": {
          "_projectFeeReceiver": "New project fee receiver wallet"
        }
      },
      "setProtocolFeeAmount(uint256)": {
        "details": "The caller must have the admin role to call this function",
        "params": {
          "_protocolFeeAmount": "New protocol fee amount"
        }
      },
      "setProtocolFeePercent(uint256)": {
        "details": "The caller must have the admin role to call this function",
        "params": {
          "_protocolFeePercent": "New protocol fee percent"
        }
      },
      "setProtocolFeeReceiver(address)": {
        "details": "The caller must have the admin role to call this function",
        "params": {
          "_protocolFeeReceiver": "New protocol fee wallet"
        }
      },
      "setSoulboundIdentity(address)": {
        "details": "The caller must have the admin role to call this function",
        "params": {
          "_soulboundIdentity": "New SoulboundIdentity contract address"
        }
      },
      "setStableCoin(address)": {
        "details": "The caller must have the admin role to call this function",
        "params": {
          "_stableCoin": "New stable coin to pay the fee in"
        }
      },
      "setSwapRouter(address)": {
        "details": "The caller must have the admin role to call this function",
        "params": {
          "_swapRouter": "New swap router address"
        }
      },
      "setWrappedNativeToken(address)": {
        "details": "The caller must have the admin role to call this function",
        "params": {
          "_wrappedNativeToken": "New wrapped native token address"
        }
      },
      "supportsInterface(bytes4)": {
        "details": "See {IERC165-supportsInterface}."
      },
      "unpause()": {
        "details": "The caller must have the admin role to call this function"
      }
    },
    "title": "Soul Store",
    "version": 1
  },
  "userdoc": {
    "kind": "user",
    "methods": {
      "addAuthority(address)": {
        "notice": "Adds a new authority to the list of authorities"
      },
      "constructor": {
        "notice": "Creates a new Soul Store"
      },
      "disablePaymentMethod(address)": {
        "notice": "Removes a token as a valid payment method"
      },
      "enablePaymentMethod(address)": {
        "notice": "Adds a new token as a valid payment method"
      },
      "getEnabledPaymentMethods()": {
        "notice": "Returns all available payment methods"
      },
      "getNameRegistrationPricePerYear(uint256)": {
        "notice": "Returns the price of register a name per year in stable coin for an specific length"
      },
      "getPriceForMintingName(address,uint256,uint256)": {
        "notice": "Returns the price of the name minting"
      },
      "getPriceForMintingNameWithProtocolFee(address,uint256,uint256)": {
        "notice": "Returns the price of the name minting with protocol fee"
      },
      "getProtocolFee(address,uint256)": {
        "notice": "Calculates the protocol fee"
      },
      "pause()": {
        "notice": "Pauses the smart contract"
      },
      "purchaseIdentity()": {
        "notice": "Mints a new Soulbound Identity purchasing it"
      },
      "purchaseIdentity(address)": {
        "notice": "Mints a new Soulbound Identity purchasing it"
      },
      "purchaseIdentityAndName(address,string,uint256,uint256,string,address,bytes)": {
        "notice": "Mints a new Soulbound Identity and Name purchasing it"
      },
      "purchaseName(address,address,string,uint256,uint256,string,address,bytes)": {
        "notice": "Mints a new Soul Name purchasing it"
      },
      "removeAuthority(address)": {
        "notice": "Removes an authority from the list of authorities"
      },
      "setMasaToken(address)": {
        "notice": "Sets the utility token to pay the fee in (MASA)"
      },
      "setNameRegistrationPricePerYear(uint256,uint256)": {
        "notice": "Sets the price of the name registering per one year in stable coin"
      },
      "setProjectFeeReceiver(address)": {
        "notice": "Set the project fee receiver wallet"
      },
      "setProtocolFeeAmount(uint256)": {
        "notice": "Set the protocol fee amount"
      },
      "setProtocolFeePercent(uint256)": {
        "notice": "Set the protocol fee percent"
      },
      "setProtocolFeeReceiver(address)": {
        "notice": "Set the protocol fee wallet"
      },
      "setSoulboundIdentity(address)": {
        "notice": "Sets the SoulboundIdentity contract address linked to this store"
      },
      "setStableCoin(address)": {
        "notice": "Sets the stable coin to pay the fee in (USDC)"
      },
      "setSwapRouter(address)": {
        "notice": "Sets the swap router address"
      },
      "setWrappedNativeToken(address)": {
        "notice": "Sets the wrapped native token address"
      },
      "unpause()": {
        "notice": "Unpauses the smart contract"
      }
    },
    "notice": "Soul Store, that can mint new Soulbound Identities and Soul Name NFTs, paying a fee",
    "version": 1
  },
  "storageLayout": {
    "storage": [
      {
        "astId": 5069,
        "contract": "contracts/ArcomiaSoulStore.sol:ArcomiaSoulStore",
        "label": "_roles",
        "offset": 0,
        "slot": "0",
        "type": "t_mapping(t_bytes32,t_struct(RoleData)5064_storage)"
      },
      {
        "astId": 1800,
        "contract": "contracts/ArcomiaSoulStore.sol:ArcomiaSoulStore",
        "label": "swapRouter",
        "offset": 0,
        "slot": "1",
        "type": "t_address"
      },
      {
        "astId": 1802,
        "contract": "contracts/ArcomiaSoulStore.sol:ArcomiaSoulStore",
        "label": "wrappedNativeToken",
        "offset": 0,
        "slot": "2",
        "type": "t_address"
      },
      {
        "astId": 1804,
        "contract": "contracts/ArcomiaSoulStore.sol:ArcomiaSoulStore",
        "label": "stableCoin",
        "offset": 0,
        "slot": "3",
        "type": "t_address"
      },
      {
        "astId": 1806,
        "contract": "contracts/ArcomiaSoulStore.sol:ArcomiaSoulStore",
        "label": "masaToken",
        "offset": 0,
        "slot": "4",
        "type": "t_address"
      },
      {
        "astId": 1810,
        "contract": "contracts/ArcomiaSoulStore.sol:ArcomiaSoulStore",
        "label": "enabledPaymentMethod",
        "offset": 0,
        "slot": "5",
        "type": "t_mapping(t_address,t_bool)"
      },
      {
        "astId": 1813,
        "contract": "contracts/ArcomiaSoulStore.sol:ArcomiaSoulStore",
        "label": "enabledPaymentMethods",
        "offset": 0,
        "slot": "6",
        "type": "t_array(t_address)dyn_storage"
      },
      {
        "astId": 1815,
        "contract": "contracts/ArcomiaSoulStore.sol:ArcomiaSoulStore",
        "label": "projectFeeReceiver",
        "offset": 0,
        "slot": "7",
        "type": "t_address"
      },
      {
        "astId": 1817,
        "contract": "contracts/ArcomiaSoulStore.sol:ArcomiaSoulStore",
        "label": "protocolFeeReceiver",
        "offset": 0,
        "slot": "8",
        "type": "t_address"
      },
      {
        "astId": 1819,
        "contract": "contracts/ArcomiaSoulStore.sol:ArcomiaSoulStore",
        "label": "protocolFeeAmount",
        "offset": 0,
        "slot": "9",
        "type": "t_uint256"
      },
      {
        "astId": 1821,
        "contract": "contracts/ArcomiaSoulStore.sol:ArcomiaSoulStore",
        "label": "protocolFeePercent",
        "offset": 0,
        "slot": "10",
        "type": "t_uint256"
      },
      {
        "astId": 5564,
        "contract": "contracts/ArcomiaSoulStore.sol:ArcomiaSoulStore",
        "label": "_paused",
        "offset": 0,
        "slot": "11",
        "type": "t_bool"
      },
      {
        "astId": 5665,
        "contract": "contracts/ArcomiaSoulStore.sol:ArcomiaSoulStore",
        "label": "_status",
        "offset": 0,
        "slot": "12",
        "type": "t_uint256"
      },
      {
        "astId": 1007,
        "contract": "contracts/ArcomiaSoulStore.sol:ArcomiaSoulStore",
        "label": "soulboundIdentity",
        "offset": 0,
        "slot": "13",
        "type": "t_contract(ISoulboundIdentity)2827"
      },
      {
        "astId": 1011,
        "contract": "contracts/ArcomiaSoulStore.sol:ArcomiaSoulStore",
        "label": "nameRegistrationPricePerYear",
        "offset": 0,
        "slot": "14",
        "type": "t_mapping(t_uint256,t_uint256)"
      },
      {
        "astId": 1015,
        "contract": "contracts/ArcomiaSoulStore.sol:ArcomiaSoulStore",
        "label": "authorities",
        "offset": 0,
        "slot": "15",
        "type": "t_mapping(t_address,t_bool)"
      }
    ],
    "types": {
      "t_address": {
        "encoding": "inplace",
        "label": "address",
        "numberOfBytes": "20"
      },
      "t_array(t_address)dyn_storage": {
        "base": "t_address",
        "encoding": "dynamic_array",
        "label": "address[]",
        "numberOfBytes": "32"
      },
      "t_bool": {
        "encoding": "inplace",
        "label": "bool",
        "numberOfBytes": "1"
      },
      "t_bytes32": {
        "encoding": "inplace",
        "label": "bytes32",
        "numberOfBytes": "32"
      },
      "t_contract(ISoulboundIdentity)2827": {
        "encoding": "inplace",
        "label": "contract ISoulboundIdentity",
        "numberOfBytes": "20"
      },
      "t_mapping(t_address,t_bool)": {
        "encoding": "mapping",
        "key": "t_address",
        "label": "mapping(address => bool)",
        "numberOfBytes": "32",
        "value": "t_bool"
      },
      "t_mapping(t_bytes32,t_struct(RoleData)5064_storage)": {
        "encoding": "mapping",
        "key": "t_bytes32",
        "label": "mapping(bytes32 => struct AccessControl.RoleData)",
        "numberOfBytes": "32",
        "value": "t_struct(RoleData)5064_storage"
      },
      "t_mapping(t_uint256,t_uint256)": {
        "encoding": "mapping",
        "key": "t_uint256",
        "label": "mapping(uint256 => uint256)",
        "numberOfBytes": "32",
        "value": "t_uint256"
      },
      "t_struct(RoleData)5064_storage": {
        "encoding": "inplace",
        "label": "struct AccessControl.RoleData",
        "members": [
          {
            "astId": 5061,
            "contract": "contracts/ArcomiaSoulStore.sol:ArcomiaSoulStore",
            "label": "members",
            "offset": 0,
            "slot": "0",
            "type": "t_mapping(t_address,t_bool)"
          },
          {
            "astId": 5063,
            "contract": "contracts/ArcomiaSoulStore.sol:ArcomiaSoulStore",
            "label": "adminRole",
            "offset": 0,
            "slot": "1",
            "type": "t_bytes32"
          }
        ],
        "numberOfBytes": "64"
      },
      "t_uint256": {
        "encoding": "inplace",
        "label": "uint256",
        "numberOfBytes": "32"
      }
    }
  }
}