{
  "address": "0xeFF129BFF662591b0e28cc0d5F80d4db6F51A53A",
  "abi": [
    {
      "inputs": [
        {
          "internalType": "address",
          "name": "admin",
          "type": "address"
        },
        {
          "internalType": "contract ISoulboundIdentity",
          "name": "_soulBoundIdentity",
          "type": "address"
        },
        {
          "internalType": "uint256",
          "name": "_nameRegistrationPricePerYear",
          "type": "uint256"
        },
        {
          "components": [
            {
              "internalType": "address",
              "name": "swapRouter",
              "type": "address"
            },
            {
              "internalType": "address",
              "name": "wrappedNativeToken",
              "type": "address"
            },
            {
              "internalType": "address",
              "name": "stableCoin",
              "type": "address"
            },
            {
              "internalType": "address",
              "name": "masaToken",
              "type": "address"
            },
            {
              "internalType": "address",
              "name": "projectFeeReceiver",
              "type": "address"
            },
            {
              "internalType": "address",
              "name": "protocolFeeReceiver",
              "type": "address"
            },
            {
              "internalType": "uint256",
              "name": "protocolFeeAmount",
              "type": "uint256"
            },
            {
              "internalType": "uint256",
              "name": "protocolFeePercent",
              "type": "uint256"
            }
          ],
          "internalType": "struct PaymentGateway.PaymentParams",
          "name": "paymentParams",
          "type": "tuple"
        }
      ],
      "stateMutability": "nonpayable",
      "type": "constructor"
    },
    {
      "inputs": [],
      "name": "AlreadyAdded",
      "type": "error"
    },
    {
      "inputs": [
        {
          "internalType": "address",
          "name": "authority",
          "type": "address"
        }
      ],
      "name": "AuthorityNotExists",
      "type": "error"
    },
    {
      "inputs": [
        {
          "internalType": "uint256",
          "name": "amount",
          "type": "uint256"
        }
      ],
      "name": "InsufficientEthAmount",
      "type": "error"
    },
    {
      "inputs": [
        {
          "internalType": "address",
          "name": "paymentMethod",
          "type": "address"
        }
      ],
      "name": "InvalidPaymentMethod",
      "type": "error"
    },
    {
      "inputs": [],
      "name": "InvalidSignature",
      "type": "error"
    },
    {
      "inputs": [
        {
          "internalType": "address",
          "name": "token",
          "type": "address"
        }
      ],
      "name": "InvalidToken",
      "type": "error"
    },
    {
      "inputs": [
        {
          "internalType": "address",
          "name": "erc20token",
          "type": "address"
        }
      ],
      "name": "NonExistingErc20Token",
      "type": "error"
    },
    {
      "inputs": [
        {
          "internalType": "address",
          "name": "signer",
          "type": "address"
        }
      ],
      "name": "NotAuthorized",
      "type": "error"
    },
    {
      "inputs": [],
      "name": "PaymentParamsNotSet",
      "type": "error"
    },
    {
      "inputs": [],
      "name": "ProtocolFeeReceiverNotSet",
      "type": "error"
    },
    {
      "inputs": [],
      "name": "RefundFailed",
      "type": "error"
    },
    {
      "inputs": [],
      "name": "SameValue",
      "type": "error"
    },
    {
      "inputs": [],
      "name": "TransferFailed",
      "type": "error"
    },
    {
      "inputs": [],
      "name": "UserMustHaveProtocolOrProjectAdminRole",
      "type": "error"
    },
    {
      "inputs": [],
      "name": "ZeroAddress",
      "type": "error"
    },
    {
      "anonymous": false,
      "inputs": [
        {
          "indexed": false,
          "internalType": "address",
          "name": "account",
          "type": "address"
        }
      ],
      "name": "Paused",
      "type": "event"
    },
    {
      "anonymous": false,
      "inputs": [
        {
          "indexed": true,
          "internalType": "bytes32",
          "name": "role",
          "type": "bytes32"
        },
        {
          "indexed": true,
          "internalType": "bytes32",
          "name": "previousAdminRole",
          "type": "bytes32"
        },
        {
          "indexed": true,
          "internalType": "bytes32",
          "name": "newAdminRole",
          "type": "bytes32"
        }
      ],
      "name": "RoleAdminChanged",
      "type": "event"
    },
    {
      "anonymous": false,
      "inputs": [
        {
          "indexed": true,
          "internalType": "bytes32",
          "name": "role",
          "type": "bytes32"
        },
        {
          "indexed": true,
          "internalType": "address",
          "name": "account",
          "type": "address"
        },
        {
          "indexed": true,
          "internalType": "address",
          "name": "sender",
          "type": "address"
        }
      ],
      "name": "RoleGranted",
      "type": "event"
    },
    {
      "anonymous": false,
      "inputs": [
        {
          "indexed": true,
          "internalType": "bytes32",
          "name": "role",
          "type": "bytes32"
        },
        {
          "indexed": true,
          "internalType": "address",
          "name": "account",
          "type": "address"
        },
        {
          "indexed": true,
          "internalType": "address",
          "name": "sender",
          "type": "address"
        }
      ],
      "name": "RoleRevoked",
      "type": "event"
    },
    {
      "anonymous": false,
      "inputs": [
        {
          "indexed": true,
          "internalType": "address",
          "name": "account",
          "type": "address"
        },
        {
          "indexed": false,
          "internalType": "uint256",
          "name": "tokenId",
          "type": "uint256"
        },
        {
          "indexed": true,
          "internalType": "string",
          "name": "name",
          "type": "string"
        },
        {
          "indexed": false,
          "internalType": "uint256",
          "name": "yearsPeriod",
          "type": "uint256"
        }
      ],
      "name": "SoulNamePurchased",
      "type": "event"
    },
    {
      "anonymous": false,
      "inputs": [
        {
          "indexed": true,
          "internalType": "address",
          "name": "account",
          "type": "address"
        },
        {
          "indexed": false,
          "internalType": "uint256",
          "name": "tokenId",
          "type": "uint256"
        },
        {
          "indexed": true,
          "internalType": "string",
          "name": "name",
          "type": "string"
        },
        {
          "indexed": false,
          "internalType": "uint256",
          "name": "yearsPeriod",
          "type": "uint256"
        }
      ],
      "name": "SoulboundIdentityAndNamePurchased",
      "type": "event"
    },
    {
      "anonymous": false,
      "inputs": [
        {
          "indexed": true,
          "internalType": "address",
          "name": "account",
          "type": "address"
        },
        {
          "indexed": false,
          "internalType": "uint256",
          "name": "tokenId",
          "type": "uint256"
        }
      ],
      "name": "SoulboundIdentityPurchased",
      "type": "event"
    },
    {
      "anonymous": false,
      "inputs": [
        {
          "indexed": false,
          "internalType": "address",
          "name": "account",
          "type": "address"
        }
      ],
      "name": "Unpaused",
      "type": "event"
    },
    {
      "inputs": [],
      "name": "DEFAULT_ADMIN_ROLE",
      "outputs": [
        {
          "internalType": "bytes32",
          "name": "",
          "type": "bytes32"
        }
      ],
      "stateMutability": "view",
      "type": "function"
    },
    {
      "inputs": [],
      "name": "PROJECT_ADMIN_ROLE",
      "outputs": [
        {
          "internalType": "bytes32",
          "name": "",
          "type": "bytes32"
        }
      ],
      "stateMutability": "view",
      "type": "function"
    },
    {
      "inputs": [
        {
          "internalType": "address",
          "name": "_authority",
          "type": "address"
        }
      ],
      "name": "addAuthority",
      "outputs": [],
      "stateMutability": "nonpayable",
      "type": "function"
    },
    {
      "inputs": [
        {
          "internalType": "address",
          "name": "",
          "type": "address"
        }
      ],
      "name": "authorities",
      "outputs": [
        {
          "internalType": "bool",
          "name": "",
          "type": "bool"
        }
      ],
      "stateMutability": "view",
      "type": "function"
    },
    {
      "inputs": [
        {
          "internalType": "address",
          "name": "_paymentMethod",
          "type": "address"
        }
      ],
      "name": "disablePaymentMethod",
      "outputs": [],
      "stateMutability": "nonpayable",
      "type": "function"
    },
    {
      "inputs": [
        {
          "internalType": "address",
          "name": "_paymentMethod",
          "type": "address"
        }
      ],
      "name": "enablePaymentMethod",
      "outputs": [],
      "stateMutability": "nonpayable",
      "type": "function"
    },
    {
      "inputs": [
        {
          "internalType": "address",
          "name": "",
          "type": "address"
        }
      ],
      "name": "enabledPaymentMethod",
      "outputs": [
        {
          "internalType": "bool",
          "name": "",
          "type": "bool"
        }
      ],
      "stateMutability": "view",
      "type": "function"
    },
    {
      "inputs": [
        {
          "internalType": "uint256",
          "name": "",
          "type": "uint256"
        }
      ],
      "name": "enabledPaymentMethods",
      "outputs": [
        {
          "internalType": "address",
          "name": "",
          "type": "address"
        }
      ],
      "stateMutability": "view",
      "type": "function"
    },
    {
      "inputs": [],
      "name": "getEnabledPaymentMethods",
      "outputs": [
        {
          "internalType": "address[]",
          "name": "",
          "type": "address[]"
        }
      ],
      "stateMutability": "view",
      "type": "function"
    },
    {
      "inputs": [
        {
          "internalType": "uint256",
          "name": "nameLength",
          "type": "uint256"
        }
      ],
      "name": "getNameRegistrationPricePerYear",
      "outputs": [
        {
          "internalType": "uint256",
          "name": "",
          "type": "uint256"
        }
      ],
      "stateMutability": "view",
      "type": "function"
    },
    {
      "inputs": [
        {
          "internalType": "address",
          "name": "paymentMethod",
          "type": "address"
        },
        {
          "internalType": "uint256",
          "name": "nameLength",
          "type": "uint256"
        },
        {
          "internalType": "uint256",
          "name": "yearsPeriod",
          "type": "uint256"
        }
      ],
      "name": "getPriceForMintingName",
      "outputs": [
        {
          "internalType": "uint256",
          "name": "price",
          "type": "uint256"
        },
        {
          "internalType": "uint256",
          "name": "protocolFee",
          "type": "uint256"
        }
      ],
      "stateMutability": "view",
      "type": "function"
    },
    {
      "inputs": [
        {
          "internalType": "bytes32",
          "name": "role",
          "type": "bytes32"
        }
      ],
      "name": "getRoleAdmin",
      "outputs": [
        {
          "internalType": "bytes32",
          "name": "",
          "type": "bytes32"
        }
      ],
      "stateMutability": "view",
      "type": "function"
    },
    {
      "inputs": [
        {
          "internalType": "bytes32",
          "name": "role",
          "type": "bytes32"
        },
        {
          "internalType": "address",
          "name": "account",
          "type": "address"
        }
      ],
      "name": "grantRole",
      "outputs": [],
      "stateMutability": "nonpayable",
      "type": "function"
    },
    {
      "inputs": [
        {
          "internalType": "bytes32",
          "name": "role",
          "type": "bytes32"
        },
        {
          "internalType": "address",
          "name": "account",
          "type": "address"
        }
      ],
      "name": "hasRole",
      "outputs": [
        {
          "internalType": "bool",
          "name": "",
          "type": "bool"
        }
      ],
      "stateMutability": "view",
      "type": "function"
    },
    {
      "inputs": [],
      "name": "masaToken",
      "outputs": [
        {
          "internalType": "address",
          "name": "",
          "type": "address"
        }
      ],
      "stateMutability": "view",
      "type": "function"
    },
    {
      "inputs": [
        {
          "internalType": "uint256",
          "name": "",
          "type": "uint256"
        }
      ],
      "name": "nameRegistrationPricePerYear",
      "outputs": [
        {
          "internalType": "uint256",
          "name": "",
          "type": "uint256"
        }
      ],
      "stateMutability": "view",
      "type": "function"
    },
    {
      "inputs": [],
      "name": "pause",
      "outputs": [],
      "stateMutability": "nonpayable",
      "type": "function"
    },
    {
      "inputs": [],
      "name": "paused",
      "outputs": [
        {
          "internalType": "bool",
          "name": "",
          "type": "bool"
        }
      ],
      "stateMutability": "view",
      "type": "function"
    },
    {
      "inputs": [],
      "name": "projectFeeReceiver",
      "outputs": [
        {
          "internalType": "address",
          "name": "",
          "type": "address"
        }
      ],
      "stateMutability": "view",
      "type": "function"
    },
    {
      "inputs": [],
      "name": "protocolFeeAmount",
      "outputs": [
        {
          "internalType": "uint256",
          "name": "",
          "type": "uint256"
        }
      ],
      "stateMutability": "view",
      "type": "function"
    },
    {
      "inputs": [],
      "name": "protocolFeePercent",
      "outputs": [
        {
          "internalType": "uint256",
          "name": "",
          "type": "uint256"
        }
      ],
      "stateMutability": "view",
      "type": "function"
    },
    {
      "inputs": [],
      "name": "protocolFeeReceiver",
      "outputs": [
        {
          "internalType": "address",
          "name": "",
          "type": "address"
        }
      ],
      "stateMutability": "view",
      "type": "function"
    },
    {
      "inputs": [],
      "name": "purchaseIdentity",
      "outputs": [
        {
          "internalType": "uint256",
          "name": "",
          "type": "uint256"
        }
      ],
      "stateMutability": "nonpayable",
      "type": "function"
    },
    {
      "inputs": [
        {
          "internalType": "address",
          "name": "paymentMethod",
          "type": "address"
        }
      ],
      "name": "purchaseIdentity",
      "outputs": [
        {
          "internalType": "uint256",
          "name": "",
          "type": "uint256"
        }
      ],
      "stateMutability": "nonpayable",
      "type": "function"
    },
    {
      "inputs": [
        {
          "internalType": "address",
          "name": "paymentMethod",
          "type": "address"
        },
        {
          "internalType": "string",
          "name": "name",
          "type": "string"
        },
        {
          "internalType": "uint256",
          "name": "nameLength",
          "type": "uint256"
        },
        {
          "internalType": "uint256",
          "name": "yearsPeriod",
          "type": "uint256"
        },
        {
          "internalType": "string",
          "name": "tokenURI",
          "type": "string"
        },
        {
          "internalType": "address",
          "name": "authorityAddress",
          "type": "address"
        },
        {
          "internalType": "bytes",
          "name": "signature",
          "type": "bytes"
        }
      ],
      "name": "purchaseIdentityAndName",
      "outputs": [
        {
          "internalType": "uint256",
          "name": "",
          "type": "uint256"
        }
      ],
      "stateMutability": "payable",
      "type": "function"
    },
    {
      "inputs": [
        {
          "internalType": "address",
          "name": "paymentMethod",
          "type": "address"
        },
        {
          "internalType": "address",
          "name": "to",
          "type": "address"
        },
        {
          "internalType": "string",
          "name": "name",
          "type": "string"
        },
        {
          "internalType": "uint256",
          "name": "nameLength",
          "type": "uint256"
        },
        {
          "internalType": "uint256",
          "name": "yearsPeriod",
          "type": "uint256"
        },
        {
          "internalType": "string",
          "name": "tokenURI",
          "type": "string"
        },
        {
          "internalType": "address",
          "name": "authorityAddress",
          "type": "address"
        },
        {
          "internalType": "bytes",
          "name": "signature",
          "type": "bytes"
        }
      ],
      "name": "purchaseName",
      "outputs": [
        {
          "internalType": "uint256",
          "name": "",
          "type": "uint256"
        }
      ],
      "stateMutability": "payable",
      "type": "function"
    },
    {
      "inputs": [
        {
          "internalType": "address",
          "name": "_authority",
          "type": "address"
        }
      ],
      "name": "removeAuthority",
      "outputs": [],
      "stateMutability": "nonpayable",
      "type": "function"
    },
    {
      "inputs": [
        {
          "internalType": "bytes32",
          "name": "role",
          "type": "bytes32"
        },
        {
          "internalType": "address",
          "name": "account",
          "type": "address"
        }
      ],
      "name": "renounceRole",
      "outputs": [],
      "stateMutability": "nonpayable",
      "type": "function"
    },
    {
      "inputs": [
        {
          "internalType": "bytes32",
          "name": "role",
          "type": "bytes32"
        },
        {
          "internalType": "address",
          "name": "account",
          "type": "address"
        }
      ],
      "name": "revokeRole",
      "outputs": [],
      "stateMutability": "nonpayable",
      "type": "function"
    },
    {
      "inputs": [
        {
          "internalType": "address",
          "name": "_masaToken",
          "type": "address"
        }
      ],
      "name": "setMasaToken",
      "outputs": [],
      "stateMutability": "nonpayable",
      "type": "function"
    },
    {
      "inputs": [
        {
          "internalType": "uint256",
          "name": "_nameLength",
          "type": "uint256"
        },
        {
          "internalType": "uint256",
          "name": "_nameRegistrationPricePerYear",
          "type": "uint256"
        }
      ],
      "name": "setNameRegistrationPricePerYear",
      "outputs": [],
      "stateMutability": "nonpayable",
      "type": "function"
    },
    {
      "inputs": [
        {
          "internalType": "address",
          "name": "_projectFeeReceiver",
          "type": "address"
        }
      ],
      "name": "setProjectFeeReceiver",
      "outputs": [],
      "stateMutability": "nonpayable",
      "type": "function"
    },
    {
      "inputs": [
        {
          "internalType": "uint256",
          "name": "_protocolFeeAmount",
          "type": "uint256"
        }
      ],
      "name": "setProtocolFeeAmount",
      "outputs": [],
      "stateMutability": "nonpayable",
      "type": "function"
    },
    {
      "inputs": [
        {
          "internalType": "uint256",
          "name": "_protocolFeePercent",
          "type": "uint256"
        }
      ],
      "name": "setProtocolFeePercent",
      "outputs": [],
      "stateMutability": "nonpayable",
      "type": "function"
    },
    {
      "inputs": [
        {
          "internalType": "address",
          "name": "_protocolFeeReceiver",
          "type": "address"
        }
      ],
      "name": "setProtocolFeeReceiver",
      "outputs": [],
      "stateMutability": "nonpayable",
      "type": "function"
    },
    {
      "inputs": [
        {
          "internalType": "contract ISoulboundIdentity",
          "name": "_soulboundIdentity",
          "type": "address"
        }
      ],
      "name": "setSoulboundIdentity",
      "outputs": [],
      "stateMutability": "nonpayable",
      "type": "function"
    },
    {
      "inputs": [
        {
          "internalType": "address",
          "name": "_stableCoin",
          "type": "address"
        }
      ],
      "name": "setStableCoin",
      "outputs": [],
      "stateMutability": "nonpayable",
      "type": "function"
    },
    {
      "inputs": [
        {
          "internalType": "address",
          "name": "_swapRouter",
          "type": "address"
        }
      ],
      "name": "setSwapRouter",
      "outputs": [],
      "stateMutability": "nonpayable",
      "type": "function"
    },
    {
      "inputs": [
        {
          "internalType": "address",
          "name": "_wrappedNativeToken",
          "type": "address"
        }
      ],
      "name": "setWrappedNativeToken",
      "outputs": [],
      "stateMutability": "nonpayable",
      "type": "function"
    },
    {
      "inputs": [],
      "name": "soulboundIdentity",
      "outputs": [
        {
          "internalType": "contract ISoulboundIdentity",
          "name": "",
          "type": "address"
        }
      ],
      "stateMutability": "view",
      "type": "function"
    },
    {
      "inputs": [],
      "name": "stableCoin",
      "outputs": [
        {
          "internalType": "address",
          "name": "",
          "type": "address"
        }
      ],
      "stateMutability": "view",
      "type": "function"
    },
    {
      "inputs": [
        {
          "internalType": "bytes4",
          "name": "interfaceId",
          "type": "bytes4"
        }
      ],
      "name": "supportsInterface",
      "outputs": [
        {
          "internalType": "bool",
          "name": "",
          "type": "bool"
        }
      ],
      "stateMutability": "view",
      "type": "function"
    },
    {
      "inputs": [],
      "name": "swapRouter",
      "outputs": [
        {
          "internalType": "address",
          "name": "",
          "type": "address"
        }
      ],
      "stateMutability": "view",
      "type": "function"
    },
    {
      "inputs": [],
      "name": "unpause",
      "outputs": [],
      "stateMutability": "nonpayable",
      "type": "function"
    },
    {
      "inputs": [],
      "name": "wrappedNativeToken",
      "outputs": [
        {
          "internalType": "address",
          "name": "",
          "type": "address"
        }
      ],
      "stateMutability": "view",
      "type": "function"
    }
  ],
  "transactionHash": "0xb83e08787d5a225291e8e17e3aee62f5f3868ec45b325a56fe1099998e648f06",
  "args": [
    "0x46c9cdA3F83C5c13C767A07b6E80aEd302E40B28",
    "0xcb85D14082B67e470fD9C2979F3A75341124a338",
    "10000000",
    [
      "0xE3D8bd6Aed4F159bc8000a9cD47CffDb95F96121",
      "0xf194afdf50b03e69bd7d057c1aa9e10c9954e4c9",
      "0x874069Fa1Eb16D44d622F2e0Ca25eeA172369bC1",
      "0x7d91E51C8F218f7140188A155f5C75388630B6a8",
      "0x46c9cdA3F83C5c13C767A07b6E80aEd302E40B28",
      "0x0000000000000000000000000000000000000000",
      "0",
      "0"
    ]
  ],
  "numDeployments": 1,
  "solcInputHash": "6cbd81b68768e204f10a3714d0a1e40f",
  "bytecode": "0x6101406040523480156200001257600080fd5b5060405162003d6838038062003d68833981016040819052620000359162000407565b8383838360405180604001604052806009815260200168536f756c53746f726560b81b815250604051806040016040528060058152602001640312e302e360dc1b8152508583620000906000801b836200021860201b60201c565b8051600180546001600160a01b03199081166001600160a01b0393841617825560208085015160028054841691861691909117905560408501516003805484169186169190911790556060850151600480548416918616919091179055608085015160078054841691861691909117905560a0808601516008805490941695169490941790915560c084015160095560e093840151600a55600b805460ff19169055600c91909155855186820120855191860191909120928190526101008390524690915291507f8b73c3c69bb8fe3d512ecc4cf759cc79239f7b179b0ffacaa9a75d522b39400f62000185818484620002a1565b6080523060601b60c05261012052505050506001600160a01b038316620001bf5760405163d92e233d60e01b815260040160405180910390fd5b50600d80546001600160a01b0319166001600160a01b03939093169290921790915560008052600e6020527fe710864318d4a32f37d6ce54cb3fadbef648dd12d8dbdf53973564d56b7f881c5550620005939350505050565b620002248282620002dd565b6200029d576000828152602081815260408083206001600160a01b03851684529091529020805460ff191660011790556200025c3390565b6001600160a01b0316816001600160a01b0316837f2f8788117e7eff1d82e926ec794901d17c78024a50270940304540a733656f0d60405160405180910390a45b5050565b60008383834630604051602001620002be9594939291906200048e565b6040516020818303038152906040528051906020012090509392505050565b6000828152602081815260408083206001600160a01b038516845290915290205460ff165b92915050565b8051620003028162000567565b8051620003028162000581565b600061010082840312156200033a576200033a600080fd5b62000347610100620004e4565b9050600062000357848462000308565b82525060206200036a8484830162000308565b6020830152506040620003808482850162000308565b6040830152506060620003968482850162000308565b6060830152506080620003ac8482850162000308565b60808301525060a0620003c28482850162000308565b60a08301525060c0620003d884828501620003fa565b60c08301525060e0620003ee84828501620003fa565b60e08301525092915050565b805162000302816200058c565b6000806000806101608587031215620004235762000423600080fd5b600062000431878762000308565b9450506020620004448782880162000315565b93505060406200045787828801620003fa565b92505060606200046a8782880162000322565b91505092959194509250565b620004818162000503565b82525050565b8062000481565b60a081016200049e828862000487565b620004ad602083018762000487565b620004bc604083018662000487565b620004cb606083018562000487565b620004da608083018462000476565b9695505050505050565b6000620004f060405190565b9050620004fe828262000522565b919050565b60006001600160a01b03821662000302565b6000620003028262000503565b601f19601f83011681018181106001600160401b03821117156200054a576200054a62000551565b6040525050565b634e487b7160e01b600052604160045260246000fd5b620005728162000503565b81146200057e57600080fd5b50565b620005728162000515565b8062000572565b60805160a05160c05160601c60e0516101005161012051613782620005e6600039600061253f0152600061258101526000612560015260006124c4015260006124ee0152600061251801526137826000f3fe6080604052600436106102015760003560e01c8062bdfde51461020657806301ffc9a7146102285780630513c3e91461025e578063102005191461028b57806312553e41146102ad57806317fcb39b146102cf57806323af4e17146102ef578063248a9ca31461030f57806326defa731461032f5780632f2ff15d1461034f57806332e408841461036f57806336568abe1461038f57806339a51be5146103af5780633ad3033e146103cf5780633f4ba83a146103ef578063412736571461040457806341c04d5e1461042457806346877b1a146104465780634e273d21146104665780635a394675146104865780635c975abb1461049957806374a99f8b146104b157806376ad1997146104d157806377bed5ed146104f15780637a0d16461461051e5780638456cb591461054e5780638d018461146105635780638ec9c93b1461058357806390ce84161461059957806391223d69146105c757806391d14854146105f757806394a665e914610617578063992642e51461063757806399b589cb14610657578063a217fddf14610677578063a49834211461068c578063c31c9c07146106ac578063c86aadb6146106cc578063d544e010146106ec578063d547741f1461070c578063d6e6eb9f1461072c578063da058ae314610742578063eaf94aec14610762578063ebda43961461078f578063f615283a146107af575b600080fd5b34801561021257600080fd5b50610226610221366004612cff565b6107c2565b005b34801561023457600080fd5b50610248610243366004612d5d565b6107f6565b60405161025591906132e8565b60405180910390f35b34801561026a57600080fd5b5061027e610279366004612cff565b61082d565b60405161025591906131f7565b34801561029757600080fd5b506102a0610857565b60405161025591906132d7565b3480156102b957600080fd5b506102c26108b9565b60405161025591906132f6565b3480156102db57600080fd5b5060025461027e906001600160a01b031681565b3480156102fb57600080fd5b5061022661030a366004612a3d565b6108ca565b34801561031b57600080fd5b506102c261032a366004612cff565b610927565b34801561033b57600080fd5b5061022661034a366004612a3d565b61093c565b34801561035b57600080fd5b5061022661036a366004612d20565b610a0c565b34801561037b57600080fd5b506102c261038a366004612a3d565b610a2d565b34801561039b57600080fd5b506102266103aa366004612d20565b610a5a565b3480156103bb57600080fd5b5060085461027e906001600160a01b031681565b3480156103db57600080fd5b506102266103ea366004612d9f565b610a99565b3480156103fb57600080fd5b50610226610b1d565b34801561041057600080fd5b5061022661041f366004612a3d565b610b33565b34801561043057600080fd5b506102c260008051602061372d83398151915281565b34801561045257600080fd5b50610226610461366004612a3d565b610b90565b34801561047257600080fd5b506102c2610481366004612cff565b610bed565b6102c2610494366004612a5e565b610c32565b3480156104a557600080fd5b50600b5460ff16610248565b3480156104bd57600080fd5b506102266104cc366004612de1565b610c8c565b3480156104dd57600080fd5b506102266104ec366004612a3d565b610d18565b3480156104fd57600080fd5b50600d54610511906001600160a01b031681565b60405161025591906133d4565b34801561052a57600080fd5b50610248610539366004612a3d565b60056020526000908152604090205460ff1681565b34801561055a57600080fd5b50610226610d75565b34801561056f57600080fd5b5061022661057e366004612a3d565b610d88565b34801561058f57600080fd5b506102c260095481565b3480156105a557600080fd5b506105b96105b4366004612c54565b610e24565b6040516102559291906134c3565b3480156105d357600080fd5b506102486105e2366004612a3d565b600f6020526000908152604090205460ff1681565b34801561060357600080fd5b50610248610612366004612d20565b610ef3565b34801561062357600080fd5b50610226610632366004612a3d565b610f1c565b34801561064357600080fd5b5060035461027e906001600160a01b031681565b34801561066357600080fd5b5060075461027e906001600160a01b031681565b34801561068357600080fd5b506102c2600081565b34801561069857600080fd5b506102266106a7366004612cff565b611089565b3480156106b857600080fd5b5060015461027e906001600160a01b031681565b3480156106d857600080fd5b506102266106e7366004612a3d565b6110bd565b3480156106f857600080fd5b50610226610707366004612a3d565b611169565b34801561071857600080fd5b50610226610727366004612d20565b611237565b34801561073857600080fd5b506102c2600a5481565b34801561074e57600080fd5b5061022661075d366004612a3d565b611253565b34801561076e57600080fd5b506102c261077d366004612cff565b600e6020526000908152604090205481565b34801561079b57600080fd5b5060045461027e906001600160a01b031681565b6102c26107bd366004612b63565b6112b0565b60006107cd8161130a565b6009548214156107f05760405163c23f6ccb60e01b815260040160405180910390fd5b50600955565b60006001600160e01b03198216637965db0b60e01b148061082757506301ffc9a760e01b6001600160e01b03198316145b92915050565b6006818154811061083d57600080fd5b6000918252602090912001546001600160a01b0316905081565b606060068054806020026020016040519081016040528092919081815260200182805480156108af57602002820191906000526020600020905b81546001600160a01b03168152600190910190602001808311610891575b5050505050905090565b60006108c56000610a2d565b905090565b60006108d58161130a565b6003546001600160a01b03838116911614156109045760405163c23f6ccb60e01b815260040160405180910390fd5b50600380546001600160a01b0319166001600160a01b0392909216919091179055565b60009081526020819052604090206001015490565b610947600033610ef3565b158015610969575061096760008051602061372d83398151915233610ef3565b155b15610987576040516326f0f48160e01b815260040160405180910390fd5b6001600160a01b0381166109ae5760405163d92e233d60e01b815260040160405180910390fd5b6001600160a01b0381166000908152600f602052604090205460ff16156109e85760405163f411c32760e01b815260040160405180910390fd5b6001600160a01b03166000908152600f60205260409020805460ff19166001179055565b610a1582610927565b610a1e8161130a565b610a288383611314565b505050565b6000610a37611398565b610a3f6113bd565b610a4982336113e7565b9050610a556001600c55565b919050565b6001600160a01b0381163314610a8b5760405162461bcd60e51b8152600401610a8290613493565b60405180910390fd5b610a9582826114ba565b5050565b6000610aa48161130a565b6001600160a01b038216610acb5760405163d92e233d60e01b815260040160405180910390fd5b600d546001600160a01b0383811691161415610afa5760405163c23f6ccb60e01b815260040160405180910390fd5b50600d80546001600160a01b0319166001600160a01b0392909216919091179055565b6000610b288161130a565b610b3061151f565b50565b6000610b3e8161130a565b6001546001600160a01b0383811691161415610b6d5760405163c23f6ccb60e01b815260040160405180910390fd5b50600180546001600160a01b0319166001600160a01b0392909216919091179055565b6000610b9b8161130a565b6008546001600160a01b0383811691161415610bca5760405163c23f6ccb60e01b815260040160405180910390fd5b50600880546001600160a01b0319166001600160a01b0392909216919091179055565b6000818152600e6020526040812054806108275750506000805250600e6020527fe710864318d4a32f37d6ce54cb3fadbef648dd12d8dbdf53973564d56b7f881c5490565b6000610c3c611398565b610c446113bd565b600080610c528c8a8a610e24565b91509150610c618c838361156b565b610c718b8b8b8b8b8b8b8b611928565b92505050610c7f6001600c55565b9998505050505050505050565b610c97600033610ef3565b158015610cb95750610cb760008051602061372d83398151915233610ef3565b155b15610cd7576040516326f0f48160e01b815260040160405180910390fd5b6000828152600e6020526040902054811415610d065760405163c23f6ccb60e01b815260040160405180910390fd5b6000918252600e602052604090912055565b6000610d238161130a565b6004546001600160a01b0383811691161415610d525760405163c23f6ccb60e01b815260040160405180910390fd5b50600480546001600160a01b0319166001600160a01b0392909216919091179055565b6000610d808161130a565b610b30611ae6565b610d93600033610ef3565b158015610db55750610db360008051602061372d83398151915233610ef3565b155b15610dd3576040516326f0f48160e01b815260040160405180910390fd5b6007546001600160a01b0382811691161415610e025760405163c23f6ccb60e01b815260040160405180910390fd5b600780546001600160a01b0319166001600160a01b0392909216919091179055565b6000806000610e3c84610e3687610bed565b90611b23565b905080610e4c5760009250610edb565b6003546001600160a01b038781169116148015610e8157506001600160a01b03861660009081526005602052604090205460ff165b15610e8e57809250610edb565b6001600160a01b03861660009081526005602052604090205460ff1615610ec057610eb98682611b36565b9250610edb565b85604051630ac29ab760e31b8152600401610a8291906131f7565b82610ee68785611cc9565b9250925050935093915050565b6000918252602082815260408084206001600160a01b0393909316845291905290205460ff1690565b6000610f278161130a565b6001600160a01b03821660009081526005602052604090205460ff16610f6257816040516318317bd560e01b8152600401610a8291906131f7565b6001600160a01b0382166000908152600560205260408120805460ff191690555b600654811015610a2857826001600160a01b031660068281548110610faa57610faa6136bb565b6000918252602090912001546001600160a01b031614156110775760068054610fd59060019061358e565b81548110610fe557610fe56136bb565b600091825260209091200154600680546001600160a01b039092169183908110611011576110116136bb565b9060005260206000200160006101000a8154816001600160a01b0302191690836001600160a01b031602179055506006805480611050576110506136a5565b600082815260209020810160001990810180546001600160a01b0319169055019055505050565b8061108181613648565b915050610f83565b60006110948161130a565b600a548214156110b75760405163c23f6ccb60e01b815260040160405180910390fd5b50600a55565b60006110c88161130a565b6001600160a01b03821660009081526005602052604090205460ff16156111025760405163f411c32760e01b815260040160405180910390fd5b506001600160a01b03166000818152600560205260408120805460ff191660019081179091556006805491820181559091527ff652222313e28459528d920b65115c16c04f3efc82aaedc97be59f3f377c0d3f0180546001600160a01b0319169091179055565b611174600033610ef3565b158015611196575061119460008051602061372d83398151915233610ef3565b155b156111b4576040516326f0f48160e01b815260040160405180910390fd5b6001600160a01b0381166111db5760405163d92e233d60e01b815260040160405180910390fd5b6001600160a01b0381166000908152600f602052604090205460ff1661121657806040516324b1f80560e21b8152600401610a8291906131f7565b6001600160a01b03166000908152600f60205260409020805460ff19169055565b61124082610927565b6112498161130a565b610a2883836114ba565b600061125e8161130a565b6002546001600160a01b038381169116141561128d5760405163c23f6ccb60e01b815260040160405180910390fd5b50600280546001600160a01b0319166001600160a01b0392909216919091179055565b60006112ba611398565b6112c26113bd565b6000806112d08b8a8a610e24565b915091506112df8b838361156b565b6112f08b338c8c8c8c8c8c8c611d3e565b925050506112fe6001600c55565b98975050505050505050565b610b308133611e2e565b61131e8282610ef3565b610a95576000828152602081815260408083206001600160a01b03851684529091529020805460ff191660011790556113543390565b6001600160a01b0316816001600160a01b0316837f2f8788117e7eff1d82e926ec794901d17c78024a50270940304540a733656f0d60405160405180910390a45050565b600b5460ff16156113bb5760405162461bcd60e51b8152600401610a8290613453565b565b6002600c5414156113e05760405162461bcd60e51b8152600401610a8290613483565b6002600c55565b600d5460405163ee1fe2ad60e01b815260009182916001600160a01b039091169063ee1fe2ad9061141e9087908790600401613205565b602060405180830381600087803b15801561143857600080fd5b505af115801561144c573d6000803e3d6000fd5b505050506040513d601f19601f820116820180604052508101906114709190612dc0565b9050826001600160a01b03167fe6fdadff80ae44015b9aa37d4edb70f70a8db7535a0df98de6dc5ffd11ec0c2f826040516114ab91906132f6565b60405180910390a29392505050565b6114c48282610ef3565b15610a95576000828152602081815260408083206001600160a01b0385168085529252808320805460ff1916905551339285917ff6391f5c32d9c69d2a47ea670b442974b53935d1edc7fd64eb21e047a839171b9190a45050565b611527611e87565b600b805460ff191690557f5db9ee0a495bf2e6ff9c91a7834c1ba4fdd244a5e8aa4e537bd38aeae4b073aa335b60405161156191906131f7565b60405180910390a1565b6115758282611ea9565b60008111801561158e57506001546001600160a01b0316155b156115ac5760405163fca2174f60e01b815260040160405180910390fd5b6000811180156115c557506002546001600160a01b0316155b156115e35760405163fca2174f60e01b815260040160405180910390fd5b6000811180156115fc57506003546001600160a01b0316155b1561161a5760405163fca2174f60e01b815260040160405180910390fd5b60008111801561163357506007546001600160a01b0316155b156116515760405163fca2174f60e01b815260040160405180910390fd5b8215801561165d575081155b1561166757611922565b60008211801561168057506008546001600160a01b0316155b1561169e5760405163910af6f560e01b815260040160405180910390fd5b6001600160a01b03841660009081526005602052604090205460ff166116d95783604051630ac29ab760e31b8152600401610a8291906131f7565b6001600160a01b0384166118de576116f18383611ea9565b34101561171c576117028383611ea9565b60405163091a6d0f60e01b8152600401610a8291906132f6565b82156117a6576007546040516000916001600160a01b03169085906117409061319d565b60006040518083038185875af1925050503d806000811461177d576040519150601f19603f3d011682016040523d82523d6000602084013e611782565b606091505b50509050806117a4576040516312171d8360e31b815260040160405180910390fd5b505b8115611830576008546040516000916001600160a01b03169084906117ca9061319d565b60006040518083038185875af1925050503d8060008114611807576040519150601f19603f3d011682016040523d82523d6000602084013e61180c565b606091505b505090508061182e576040516312171d8360e31b815260040160405180910390fd5b505b61183a8383611ea9565b3411156118d95760006118576118508585611ea9565b3490611eb5565b90506000336001600160a01b0316826040516118729061319d565b60006040518083038185875af1925050503d80600081146118af576040519150601f19603f3d011682016040523d82523d6000602084013e6118b4565b606091505b50509050806118d657604051633c31275160e21b815260040160405180910390fd5b50505b611922565b821561190057600754611900906001600160a01b038681169133911686611ec1565b811561192257600854611922906001600160a01b038681169133911685611ec1565b50505050565b600061197861193a8a8a8a8a8a611f19565b84848080601f016020809104026020016040519081016040528093929190818152602001838380828437600092019190915250899250611f8e915050565b600d546040805163b507d48160e01b815290516000926001600160a01b03169163b507d481916004808301926020929190829003018186803b1580156119bd57600080fd5b505afa1580156119d1573d6000803e3d6000fd5b505050506040513d601f19601f820116820180604052508101906119f59190612d7e565b90506000816001600160a01b0316633dd904308c8c8b8b6040518563ffffffff1660e01b8152600401611a2b9493929190613296565b602060405180830381600087803b158015611a4557600080fd5b505af1158015611a59573d6000803e3d6000fd5b505050506040513d601f19601f82011682018060405250810190611a7d9190612dc0565b905089604051611a8d9190613160565b60405180910390208b6001600160a01b03167f32044e50415e96c0068a718b8df9993f4803b2e54518d56c52ef6438a91619aa838b604051611ad09291906134c3565b60405180910390a39a9950505050505050505050565b611aee611398565b600b805460ff191660011790557f62e78cea01bee320cd4e420270b5ea74000d11b0c9f74754ebdbfc544b05a2586115543390565b6000611b2f828461356f565b9392505050565b600081600081118015611b5257506001546001600160a01b0316155b15611b705760405163fca2174f60e01b815260040160405180910390fd5b600081118015611b8957506002546001600160a01b0316155b15611ba75760405163fca2174f60e01b815260040160405180910390fd5b600081118015611bc057506003546001600160a01b0316155b15611bde5760405163fca2174f60e01b815260040160405180910390fd5b600081118015611bf757506007546001600160a01b0316155b15611c155760405163fca2174f60e01b815260040160405180910390fd5b6001600160a01b03841660009081526005602052604090205460ff161580611c4a57506003546001600160a01b038581169116145b15611c6a578360405163961c9a4f60e01b8152600401610a8291906131f7565b82611c785760009150611cc2565b6001600160a01b038416611caa57600254600354611ca3916001600160a01b03908116911685612009565b9150611cc2565b600354611ca39085906001600160a01b031685612009565b5092915050565b600954600090819015611d04576003546001600160a01b0385811691161415611cf55750600954611d04565b611d0184600954611b36565b90505b600a5415611b2f57611d36611d2f6064611d29600a5487611b2390919063ffffffff16565b906120c7565b8290611ea9565b949350505050565b6000611d5061193a8a8a8a8a8a611f19565b600d546040516398acb9a960e01b81526000916001600160a01b0316906398acb9a990611d89908e908e908e908d908d90600401613220565b602060405180830381600087803b158015611da357600080fd5b505af1158015611db7573d6000803e3d6000fd5b505050506040513d601f19601f82011682018060405250810190611ddb9190612dc0565b905088604051611deb9190613160565b60405180910390208a6001600160a01b03167f60579b770d8bde9b5f57c468ffb4acb023252b190304137b45b86b72f66a1940838a604051611ad09291906134c3565b611e388282610ef3565b610a9557611e45816120d3565b611e508360206120e5565b604051602001611e619291906131a5565b60408051601f198184030181529082905262461bcd60e51b8252610a82916004016133e2565b600b5460ff166113bb5760405162461bcd60e51b8152600401610a8290613413565b6000611b2f8284613543565b6000611b2f828461358e565b611922846323b872dd60e01b858585604051602401611ee29392919061326e565b60408051601f198184030181529190526020810180516001600160e01b03166001600160e01b031990931692909217909152612250565b6000611f827f7503a77cf463259868f167e5b04bb93b908e722f1d532d8a0635f83ea802a2c187878051906020012087878780519060200120604051602001611f6796959493929190613304565b604051602081830303815290604052805190602001206122df565b90505b95945050505050565b6000611f9a84846122f2565b9050816001600160a01b0316816001600160a01b031614611fce57604051638baa579f60e01b815260040160405180910390fd5b6001600160a01b0381166000908152600f602052604090205460ff166119225780604051634a0bfec160e01b8152600401610a8291906131f7565b60006060806120188686612316565b6001546040516307c0329d60e21b81529192506001600160a01b031690631f00ca749061204b90879085906004016134a3565b60006040518083038186803b15801561206357600080fd5b505afa158015612077573d6000803e3d6000fd5b505050506040513d6000823e601f3d908101601f1916820160405261209f9190810190612ca4565b9150816000815181106120b4576120b46136bb565b6020026020010151925050509392505050565b6000611b2f828461355b565b60606108276001600160a01b03831660145b606060006120f483600261356f565b6120ff906002613543565b6001600160401b03811115612116576121166136d1565b6040519080825280601f01601f191660200182016040528015612140576020820181803683370190505b509050600360fc1b8160008151811061215b5761215b6136bb565b60200101906001600160f81b031916908160001a905350600f60fb1b8160018151811061218a5761218a6136bb565b60200101906001600160f81b031916908160001a90535060006121ae84600261356f565b6121b9906001613543565b90505b6001811115612231576f181899199a1a9b1b9c1cb0b131b232b360811b85600f16601081106121ed576121ed6136bb565b1a60f81b828281518110612203576122036136bb565b60200101906001600160f81b031916908160001a90535060049490941c9361222a81613604565b90506121bc565b508315611b2f5760405162461bcd60e51b8152600401610a8290613403565b60006122a5826040518060400160405280602081526020017f5361666545524332303a206c6f772d6c6576656c2063616c6c206661696c6564815250856001600160a01b03166124a89092919063ffffffff16565b805190915015610a2857808060200190518101906122c39190612cde565b610a285760405162461bcd60e51b8152600401610a8290613473565b60006108276122ec6124b7565b836125a5565b600080600061230185856125d8565b9150915061230e8161261e565b509392505050565b6002546060906001600160a01b038481169116148061234257506002546001600160a01b038381169116145b1561240c57604080516002808252606082018352600092602083019080368337019050506002549091506001600160a01b038581169116146123845783612391565b6002546001600160a01b03165b816000815181106123a4576123a46136bb565b6001600160a01b0392831660209182029290920101526002548482169116146123cd57826123da565b6002546001600160a01b03165b816001815181106123ed576123ed6136bb565b6001600160a01b03909216602092830291909101909101529050610827565b60408051600380825260808201909252600091602082016060803683370190505090508381600081518110612443576124436136bb565b6001600160a01b039283166020918202929092010152600254825191169082906001908110612474576124746136bb565b60200260200101906001600160a01b031690816001600160a01b03168152505082816002815181106123ed576123ed6136bb565b6060611d3684846000856126d1565b6000306001600160a01b037f00000000000000000000000000000000000000000000000000000000000000001614801561251057507f000000000000000000000000000000000000000000000000000000000000000046145b1561253a57507f000000000000000000000000000000000000000000000000000000000000000090565b6108c57f00000000000000000000000000000000000000000000000000000000000000007f00000000000000000000000000000000000000000000000000000000000000007f000000000000000000000000000000000000000000000000000000000000000061276d565b600082826040516020016125ba92919061316c565b60405160208183030381529060405280519060200120905092915050565b60008082516041141561260f5760208301516040840151606085015160001a612603878285856127a7565b94509450505050612617565b506000905060025b9250929050565b60008160048111156126325761263261368f565b141561263b5750565b600181600481111561264f5761264f61368f565b141561266d5760405162461bcd60e51b8152600401610a82906133f3565b60028160048111156126815761268161368f565b141561269f5760405162461bcd60e51b8152600401610a8290613423565b60038160048111156126b3576126b361368f565b1415610b305760405162461bcd60e51b8152600401610a8290613433565b6060824710156126f35760405162461bcd60e51b8152600401610a8290613443565b600080866001600160a01b0316858760405161270f9190613160565b60006040518083038185875af1925050503d806000811461274c576040519150601f19603f3d011682016040523d82523d6000602084013e612751565b606091505b509150915061276287838387612854565b979650505050505050565b60008383834630604051602001612788959493929190613353565b6040516020818303038152906040528051906020012090509392505050565b6000806fa2a8918ca85bafe22016d0b997e4df60600160ff1b038311156127d4575060009050600361284b565b6000600187878787604051600081526020016040526040516127f9949392919061339f565b6020604051602081039080840390855afa15801561281b573d6000803e3d6000fd5b5050604051601f1901519150506001600160a01b0381166128445760006001925092505061284b565b9150600090505b94509492505050565b60608315612890578251612889576001600160a01b0385163b6128895760405162461bcd60e51b8152600401610a8290613463565b5081611d36565b611d3683838151156128a55781518083602001fd5b8060405162461bcd60e51b8152600401610a8291906133e2565b60006128d26128cd846134f5565b6134de565b905080838252602082019050828560208602820111156128f4576128f4600080fd5b60005b85811015612920578161290a8882612a32565b84525060209283019291909101906001016128f7565b5050509392505050565b60006129386128cd84613518565b90508281526020810184848401111561295357612953600080fd5b61230e8482856135cc565b8035610827816136f1565b600082601f83011261297d5761297d600080fd5b8151611d368482602086016128bf565b805161082781613705565b80356108278161370d565b803561082781613713565b60008083601f8401126129c3576129c3600080fd5b5081356001600160401b038111156129dd576129dd600080fd5b60208301915083600182028301111561261757612617600080fd5b805161082781613723565b803561082781613723565b600082601f830112612a2257612a22600080fd5b8135611d3684826020860161292a565b80516108278161370d565b600060208284031215612a5257612a52600080fd5b6000611d36848461295e565b60008060008060008060008060006101008a8c031215612a8057612a80600080fd5b6000612a8c8c8c61295e565b9950506020612a9d8c828d0161295e565b98505060408a01356001600160401b03811115612abc57612abc600080fd5b612ac88c828d01612a0e565b9750506060612ad98c828d01612998565b9650506080612aea8c828d01612998565b95505060a08a01356001600160401b03811115612b0957612b09600080fd5b612b158c828d01612a0e565b94505060c0612b268c828d0161295e565b93505060e08a01356001600160401b03811115612b4557612b45600080fd5b612b518c828d016129ae565b92509250509295985092959850929598565b60008060008060008060008060e0898b031215612b8257612b82600080fd5b6000612b8e8b8b61295e565b98505060208901356001600160401b03811115612bad57612bad600080fd5b612bb98b828c01612a0e565b9750506040612bca8b828c01612998565b9650506060612bdb8b828c01612998565b95505060808901356001600160401b03811115612bfa57612bfa600080fd5b612c068b828c01612a0e565b94505060a0612c178b828c0161295e565b93505060c08901356001600160401b03811115612c3657612c36600080fd5b612c428b828c016129ae565b92509250509295985092959890939650565b600080600060608486031215612c6c57612c6c600080fd5b6000612c78868661295e565b9350506020612c8986828701612998565b9250506040612c9a86828701612998565b9150509250925092565b600060208284031215612cb957612cb9600080fd5b81516001600160401b03811115612cd257612cd2600080fd5b611d3684828501612969565b600060208284031215612cf357612cf3600080fd5b6000611d36848461298d565b600060208284031215612d1457612d14600080fd5b6000611d368484612998565b60008060408385031215612d3657612d36600080fd5b6000612d428585612998565b9250506020612d538582860161295e565b9150509250929050565b600060208284031215612d7257612d72600080fd5b6000611d3684846129a3565b600060208284031215612d9357612d93600080fd5b6000611d3684846129f8565b600060208284031215612db457612db4600080fd5b6000611d368484612a03565b600060208284031215612dd557612dd5600080fd5b6000611d368484612a32565b60008060408385031215612df757612df7600080fd5b6000612e038585612998565b9250506020612d5385828601612998565b6000612e208383612e28565b505060200190565b612e31816135a5565b82525050565b6000612e41825190565b80845260209384019383018060005b83811015612e75578151612e648882612e14565b975060208301925050600101612e50565b509495945050505050565b801515612e31565b80612e31565b6000612e98825190565b612ea68185602086016135d8565b9290920192915050565b612e31816135c1565b6000612ec3825190565b808452602084019350612eda8185602086016135d8565b612ee3816136e7565b9093019392505050565b601881526000602082017745434453413a20696e76616c6964207369676e617475726560401b815291505b5060200190565b60208082527f537472696e67733a20686578206c656e67746820696e73756666696369656e7491019081526000612f18565b601481526000602082017314185d5cd8589b194e881b9bdd081c185d5cd95960621b81529150612f18565b601f81526000602082017f45434453413a20696e76616c6964207369676e6174757265206c656e6774680081529150612f18565b602281526000602082017f45434453413a20696e76616c6964207369676e6174757265202773272076616c815261756560f01b602082015291505b5060400190565b602681526000602082017f416464726573733a20696e73756666696369656e742062616c616e636520666f8152651c8818d85b1b60d21b60208201529150612feb565b601081526000602082016f14185d5cd8589b194e881c185d5cd95960821b81529150612f18565b601d81526000602082017f416464726573733a2063616c6c20746f206e6f6e2d636f6e747261637400000081529150612f18565b602a81526000602082017f5361666545524332303a204552433230206f7065726174696f6e20646964206e8152691bdd081cdd58d8d9595960b21b60208201529150612feb565b601f81526000602082017f5265656e7472616e637947756172643a207265656e7472616e742063616c6c0081529150612f18565b602f81526000602082017f416363657373436f6e74726f6c3a2063616e206f6e6c792072656e6f756e636581526e103937b632b9903337b91039b2b63360891b60208201529150612feb565b60ff8116612e31565b6000611b2f8284612e8e565b61190160f01b815260020160006131838285612e88565b6020820191506131938284612e88565b5060200192915050565b600081610827565b76020b1b1b2b9b9a1b7b73a3937b61d1030b1b1b7bab73a1604d1b815260170160006131d18285612e8e565b7001034b99036b4b9b9b4b733903937b6329607d1b81526011019150611d368284612e8e565b602081016108278284612e28565b604081016132138285612e28565b611b2f6020830184612e28565b60a0810161322e8288612e28565b61323b6020830187612e28565b818103604083015261324d8186612eb9565b905061325c6060830185612e88565b81810360808301526127628184612eb9565b6060810161327c8286612e28565b6132896020830185612e28565b611d366040830184612e88565b608081016132a48287612e28565b81810360208301526132b68186612eb9565b90506132c56040830185612e88565b8181036060830152611f828184612eb9565b60208082528101611b2f8184612e37565b602081016108278284612e80565b602081016108278284612e88565b60c081016133128289612e88565b61331f6020830188612e28565b61332c6040830187612e88565b6133396060830186612e88565b6133466080830185612e88565b61276260a0830184612e88565b60a081016133618288612e88565b61336e6020830187612e88565b61337b6040830186612e88565b6133886060830185612e88565b6133956080830184612e28565b9695505050505050565b608081016133ad8287612e88565b6133ba6020830186613157565b6133c76040830185612e88565b611f856060830184612e88565b602081016108278284612eb0565b60208082528101611b2f8184612eb9565b6020808252810161082781612eed565b6020808252810161082781612f1f565b6020808252810161082781612f51565b6020808252810161082781612f7c565b6020808252810161082781612fb0565b6020808252810161082781612ff2565b6020808252810161082781613035565b602080825281016108278161305c565b6020808252810161082781613090565b60208082528101610827816130d7565b602080825281016108278161310b565b604081016134b18285612e88565b8181036020830152611d368184612e37565b604081016134d18285612e88565b611b2f6020830184612e88565b60006134e960405190565b9050610a55828261361b565b60006001600160401b0382111561350e5761350e6136d1565b5060209081020190565b60006001600160401b03821115613531576135316136d1565b61353a826136e7565b60200192915050565b6000821982111561355657613556613663565b500190565b60008261356a5761356a613679565b500490565b600081600019048311821515161561358957613589613663565b500290565b6000828210156135a0576135a0613663565b500390565b60006001600160a01b038216610827565b6000610827826135a5565b6000610827826135b6565b82818337506000910152565b60005b838110156135f35781810151838201526020016135db565b838111156119225750506000910152565b60008161361357613613613663565b506000190190565b613624826136e7565b81018181106001600160401b0382111715613641576136416136d1565b6040525050565b600060001982141561365c5761365c613663565b5060010190565b634e487b7160e01b600052601160045260246000fd5b634e487b7160e01b600052601260045260246000fd5b634e487b7160e01b600052602160045260246000fd5b634e487b7160e01b600052603160045260246000fd5b634e487b7160e01b600052603260045260246000fd5b634e487b7160e01b600052604160045260246000fd5b601f01601f191690565b6136fa816135a5565b8114610b3057600080fd5b8015156136fa565b806136fa565b6001600160e01b031981166136fa565b6136fa816135b656fe52eafc11f6f81f86878bffd31109a0d92f37506527754f00788853ff9f63b130a2646970667358221220e57c62bf932ae80ad519b004c99eedd40b84e61dbe239969b23f423894a966e164736f6c63430008070033",
  "devdoc": {
    "author": "Masa Finance",
    "details": "From this smart contract we can mint new Soulbound Identities and Soul Name NFTs. This minting can be done paying a fee in ETH, USDC or MASA",
    "kind": "dev",
    "methods": {
      "addAuthority(address)": {
        "details": "The caller must have the admin or project admin role to call this function",
        "params": {
          "_authority": "New authority to add"
        }
      },
      "constructor": {
        "details": "Creates a new Soul Store, that has the role to minting new Soulbound Identities and Soul Name NFTs, paying a fee",
        "params": {
          "_nameRegistrationPricePerYear": "Price of the default name registering in stable coin per year",
          "_soulBoundIdentity": "Address of the Soulbound identity contract",
          "admin": "Administrator of the smart contract",
          "paymentParams": "Payment gateway params"
        }
      },
      "disablePaymentMethod(address)": {
        "details": "The caller must have the admin role to call this function",
        "params": {
          "_paymentMethod": "Token to remove"
        }
      },
      "enablePaymentMethod(address)": {
        "details": "The caller must have the admin role to call this function",
        "params": {
          "_paymentMethod": "New token to add"
        }
      },
      "getEnabledPaymentMethods()": {
        "details": "Returns the address of all available payment methods",
        "returns": {
          "_0": "Array of all enabled payment methods"
        }
      },
      "getNameRegistrationPricePerYear(uint256)": {
        "details": "Returns the price for registering per year in USD for an specific name length",
        "params": {
          "nameLength": "Length of the name"
        },
        "returns": {
          "_0": "Price in stable coin for that name length"
        }
      },
      "getPriceForMintingName(address,uint256,uint256)": {
        "details": "Returns current pricing for name minting for a given name length and years period",
        "params": {
          "nameLength": "Length of the name",
          "paymentMethod": "Address of token that user want to pay",
          "yearsPeriod": "Years of validity of the name"
        },
        "returns": {
          "price": "Current price of the name minting in the given payment method",
          "protocolFee": "Current protocol fee of the name minting in the given payment method"
        }
      },
      "getRoleAdmin(bytes32)": {
        "details": "Returns the admin role that controls `role`. See {grantRole} and {revokeRole}. To change a role's admin, use {_setRoleAdmin}."
      },
      "grantRole(bytes32,address)": {
        "details": "Grants `role` to `account`. If `account` had not been already granted `role`, emits a {RoleGranted} event. Requirements: - the caller must have ``role``'s admin role. May emit a {RoleGranted} event."
      },
      "hasRole(bytes32,address)": {
        "details": "Returns `true` if `account` has been granted `role`."
      },
      "pause()": {
        "details": "The caller must have the admin role to call this function"
      },
      "paused()": {
        "details": "Returns true if the contract is paused, and false otherwise."
      },
      "purchaseIdentity()": {
        "details": "This function allows the purchase of a soulbound identity for free",
        "returns": {
          "_0": "TokenId of the new soulbound identity"
        }
      },
      "purchaseIdentity(address)": {
        "details": "This function allows the purchase of a soulbound identity for free",
        "params": {
          "paymentMethod": "Address of token that user want to pay"
        },
        "returns": {
          "_0": "TokenId of the new soulbound identity"
        }
      },
      "purchaseIdentityAndName(address,string,uint256,uint256,string,address,bytes)": {
        "details": "This function allows the purchase of a soulbound identity and name using stable coin (USDC), native token (ETH) or utility token (MASA)",
        "params": {
          "authorityAddress": "Address of the authority",
          "name": "Name of the new soul name",
          "nameLength": "Length of the name",
          "paymentMethod": "Address of token that user want to pay",
          "signature": "Signature of the authority",
          "tokenURI": "URI of the NFT",
          "yearsPeriod": "Years of validity of the name"
        },
        "returns": {
          "_0": "TokenId of the new soulbound identity"
        }
      },
      "purchaseName(address,address,string,uint256,uint256,string,address,bytes)": {
        "details": "This function allows the purchase of a soul name using stable coin (USDC), native token (ETH) or utility token (MASA)",
        "params": {
          "authorityAddress": "Address of the authority",
          "name": "Name of the new soul name",
          "nameLength": "Length of the name",
          "paymentMethod": "Address of token that user want to pay",
          "signature": "Signature of the authority",
          "to": "Address of the owner of the new soul name",
          "tokenURI": "URI of the NFT",
          "yearsPeriod": "Years of validity of the name"
        },
        "returns": {
          "_0": "TokenId of the new sou name"
        }
      },
      "removeAuthority(address)": {
        "details": "The caller must have the admin or project admin role to call this function",
        "params": {
          "_authority": "Authority to remove"
        }
      },
      "renounceRole(bytes32,address)": {
        "details": "Revokes `role` from the calling account. Roles are often managed via {grantRole} and {revokeRole}: this function's purpose is to provide a mechanism for accounts to lose their privileges if they are compromised (such as when a trusted device is misplaced). If the calling account had been revoked `role`, emits a {RoleRevoked} event. Requirements: - the caller must be `account`. May emit a {RoleRevoked} event."
      },
      "revokeRole(bytes32,address)": {
        "details": "Revokes `role` from `account`. If `account` had been granted `role`, emits a {RoleRevoked} event. Requirements: - the caller must have ``role``'s admin role. May emit a {RoleRevoked} event."
      },
      "setMasaToken(address)": {
        "details": "The caller must have the admin role to call this function It can be set to address(0) to disable paying in MASA",
        "params": {
          "_masaToken": "New utility token to pay the fee in"
        }
      },
      "setNameRegistrationPricePerYear(uint256,uint256)": {
        "details": "The caller must have the admin or project admin role to call this function",
        "params": {
          "_nameLength": "Length of the name",
          "_nameRegistrationPricePerYear": "New price of the name registering per one year in stable coin for that name length per year"
        }
      },
      "setProjectFeeReceiver(address)": {
        "details": "The caller must have the admin or project admin role to call this function",
        "params": {
          "_projectFeeReceiver": "New project fee receiver wallet"
        }
      },
      "setProtocolFeeAmount(uint256)": {
        "details": "The caller must have the admin role to call this function",
        "params": {
          "_protocolFeeAmount": "New protocol fee amount"
        }
      },
      "setProtocolFeePercent(uint256)": {
        "details": "The caller must have the admin role to call this function",
        "params": {
          "_protocolFeePercent": "New protocol fee percent"
        }
      },
      "setProtocolFeeReceiver(address)": {
        "details": "The caller must have the admin role to call this function",
        "params": {
          "_protocolFeeReceiver": "New protocol fee wallet"
        }
      },
      "setSoulboundIdentity(address)": {
        "details": "The caller must have the admin role to call this function",
        "params": {
          "_soulboundIdentity": "New SoulboundIdentity contract address"
        }
      },
      "setStableCoin(address)": {
        "details": "The caller must have the admin role to call this function",
        "params": {
          "_stableCoin": "New stable coin to pay the fee in"
        }
      },
      "setSwapRouter(address)": {
        "details": "The caller must have the admin role to call this function",
        "params": {
          "_swapRouter": "New swap router address"
        }
      },
      "setWrappedNativeToken(address)": {
        "details": "The caller must have the admin role to call this function",
        "params": {
          "_wrappedNativeToken": "New wrapped native token address"
        }
      },
      "supportsInterface(bytes4)": {
        "details": "See {IERC165-supportsInterface}."
      },
      "unpause()": {
        "details": "The caller must have the admin role to call this function"
      }
    },
    "title": "Soul Store",
    "version": 1
  },
  "userdoc": {
    "kind": "user",
    "methods": {
      "addAuthority(address)": {
        "notice": "Adds a new authority to the list of authorities"
      },
      "constructor": {
        "notice": "Creates a new Soul Store"
      },
      "disablePaymentMethod(address)": {
        "notice": "Removes a token as a valid payment method"
      },
      "enablePaymentMethod(address)": {
        "notice": "Adds a new token as a valid payment method"
      },
      "getEnabledPaymentMethods()": {
        "notice": "Returns all available payment methods"
      },
      "getNameRegistrationPricePerYear(uint256)": {
        "notice": "Returns the price of register a name per year in stable coin for an specific length"
      },
      "getPriceForMintingName(address,uint256,uint256)": {
        "notice": "Returns the price of the name minting"
      },
      "pause()": {
        "notice": "Pauses the smart contract"
      },
      "purchaseIdentity()": {
        "notice": "Mints a new Soulbound Identity purchasing it"
      },
      "purchaseIdentity(address)": {
        "notice": "Mints a new Soulbound Identity purchasing it"
      },
      "purchaseIdentityAndName(address,string,uint256,uint256,string,address,bytes)": {
        "notice": "Mints a new Soulbound Identity and Name purchasing it"
      },
      "purchaseName(address,address,string,uint256,uint256,string,address,bytes)": {
        "notice": "Mints a new Soul Name purchasing it"
      },
      "removeAuthority(address)": {
        "notice": "Removes an authority from the list of authorities"
      },
      "setMasaToken(address)": {
        "notice": "Sets the utility token to pay the fee in (MASA)"
      },
      "setNameRegistrationPricePerYear(uint256,uint256)": {
        "notice": "Sets the price of the name registering per one year in stable coin"
      },
      "setProjectFeeReceiver(address)": {
        "notice": "Set the project fee receiver wallet"
      },
      "setProtocolFeeAmount(uint256)": {
        "notice": "Set the protocol fee amount"
      },
      "setProtocolFeePercent(uint256)": {
        "notice": "Set the protocol fee percent"
      },
      "setProtocolFeeReceiver(address)": {
        "notice": "Set the protocol fee wallet"
      },
      "setSoulboundIdentity(address)": {
        "notice": "Sets the SoulboundIdentity contract address linked to this store"
      },
      "setStableCoin(address)": {
        "notice": "Sets the stable coin to pay the fee in (USDC)"
      },
      "setSwapRouter(address)": {
        "notice": "Sets the swap router address"
      },
      "setWrappedNativeToken(address)": {
        "notice": "Sets the wrapped native token address"
      },
      "unpause()": {
        "notice": "Unpauses the smart contract"
      }
    },
    "notice": "Soul Store, that can mint new Soulbound Identities and Soul Name NFTs, paying a fee",
    "version": 1
  },
  "storageLayout": {
    "storage": [
      {
        "astId": 5013,
        "contract": "contracts/ArcomiaSoulStore.sol:ArcomiaSoulStore",
        "label": "_roles",
        "offset": 0,
        "slot": "0",
        "type": "t_mapping(t_bytes32,t_struct(RoleData)5008_storage)"
      },
      {
        "astId": 1777,
        "contract": "contracts/ArcomiaSoulStore.sol:ArcomiaSoulStore",
        "label": "swapRouter",
        "offset": 0,
        "slot": "1",
        "type": "t_address"
      },
      {
        "astId": 1779,
        "contract": "contracts/ArcomiaSoulStore.sol:ArcomiaSoulStore",
        "label": "wrappedNativeToken",
        "offset": 0,
        "slot": "2",
        "type": "t_address"
      },
      {
        "astId": 1781,
        "contract": "contracts/ArcomiaSoulStore.sol:ArcomiaSoulStore",
        "label": "stableCoin",
        "offset": 0,
        "slot": "3",
        "type": "t_address"
      },
      {
        "astId": 1783,
        "contract": "contracts/ArcomiaSoulStore.sol:ArcomiaSoulStore",
        "label": "masaToken",
        "offset": 0,
        "slot": "4",
        "type": "t_address"
      },
      {
        "astId": 1787,
        "contract": "contracts/ArcomiaSoulStore.sol:ArcomiaSoulStore",
        "label": "enabledPaymentMethod",
        "offset": 0,
        "slot": "5",
        "type": "t_mapping(t_address,t_bool)"
      },
      {
        "astId": 1790,
        "contract": "contracts/ArcomiaSoulStore.sol:ArcomiaSoulStore",
        "label": "enabledPaymentMethods",
        "offset": 0,
        "slot": "6",
        "type": "t_array(t_address)dyn_storage"
      },
      {
        "astId": 1792,
        "contract": "contracts/ArcomiaSoulStore.sol:ArcomiaSoulStore",
        "label": "projectFeeReceiver",
        "offset": 0,
        "slot": "7",
        "type": "t_address"
      },
      {
        "astId": 1794,
        "contract": "contracts/ArcomiaSoulStore.sol:ArcomiaSoulStore",
        "label": "protocolFeeReceiver",
        "offset": 0,
        "slot": "8",
        "type": "t_address"
      },
      {
        "astId": 1796,
        "contract": "contracts/ArcomiaSoulStore.sol:ArcomiaSoulStore",
        "label": "protocolFeeAmount",
        "offset": 0,
        "slot": "9",
        "type": "t_uint256"
      },
      {
        "astId": 1798,
        "contract": "contracts/ArcomiaSoulStore.sol:ArcomiaSoulStore",
        "label": "protocolFeePercent",
        "offset": 0,
        "slot": "10",
        "type": "t_uint256"
      },
      {
        "astId": 5508,
        "contract": "contracts/ArcomiaSoulStore.sol:ArcomiaSoulStore",
        "label": "_paused",
        "offset": 0,
        "slot": "11",
        "type": "t_bool"
      },
      {
        "astId": 5609,
        "contract": "contracts/ArcomiaSoulStore.sol:ArcomiaSoulStore",
        "label": "_status",
        "offset": 0,
        "slot": "12",
        "type": "t_uint256"
      },
      {
        "astId": 1007,
        "contract": "contracts/ArcomiaSoulStore.sol:ArcomiaSoulStore",
        "label": "soulboundIdentity",
        "offset": 0,
        "slot": "13",
        "type": "t_contract(ISoulboundIdentity)2788"
      },
      {
        "astId": 1011,
        "contract": "contracts/ArcomiaSoulStore.sol:ArcomiaSoulStore",
        "label": "nameRegistrationPricePerYear",
        "offset": 0,
        "slot": "14",
        "type": "t_mapping(t_uint256,t_uint256)"
      },
      {
        "astId": 1015,
        "contract": "contracts/ArcomiaSoulStore.sol:ArcomiaSoulStore",
        "label": "authorities",
        "offset": 0,
        "slot": "15",
        "type": "t_mapping(t_address,t_bool)"
      }
    ],
    "types": {
      "t_address": {
        "encoding": "inplace",
        "label": "address",
        "numberOfBytes": "20"
      },
      "t_array(t_address)dyn_storage": {
        "base": "t_address",
        "encoding": "dynamic_array",
        "label": "address[]",
        "numberOfBytes": "32"
      },
      "t_bool": {
        "encoding": "inplace",
        "label": "bool",
        "numberOfBytes": "1"
      },
      "t_bytes32": {
        "encoding": "inplace",
        "label": "bytes32",
        "numberOfBytes": "32"
      },
      "t_contract(ISoulboundIdentity)2788": {
        "encoding": "inplace",
        "label": "contract ISoulboundIdentity",
        "numberOfBytes": "20"
      },
      "t_mapping(t_address,t_bool)": {
        "encoding": "mapping",
        "key": "t_address",
        "label": "mapping(address => bool)",
        "numberOfBytes": "32",
        "value": "t_bool"
      },
      "t_mapping(t_bytes32,t_struct(RoleData)5008_storage)": {
        "encoding": "mapping",
        "key": "t_bytes32",
        "label": "mapping(bytes32 => struct AccessControl.RoleData)",
        "numberOfBytes": "32",
        "value": "t_struct(RoleData)5008_storage"
      },
      "t_mapping(t_uint256,t_uint256)": {
        "encoding": "mapping",
        "key": "t_uint256",
        "label": "mapping(uint256 => uint256)",
        "numberOfBytes": "32",
        "value": "t_uint256"
      },
      "t_struct(RoleData)5008_storage": {
        "encoding": "inplace",
        "label": "struct AccessControl.RoleData",
        "members": [
          {
            "astId": 5005,
            "contract": "contracts/ArcomiaSoulStore.sol:ArcomiaSoulStore",
            "label": "members",
            "offset": 0,
            "slot": "0",
            "type": "t_mapping(t_address,t_bool)"
          },
          {
            "astId": 5007,
            "contract": "contracts/ArcomiaSoulStore.sol:ArcomiaSoulStore",
            "label": "adminRole",
            "offset": 0,
            "slot": "1",
            "type": "t_bytes32"
          }
        ],
        "numberOfBytes": "64"
      },
      "t_uint256": {
        "encoding": "inplace",
        "label": "uint256",
        "numberOfBytes": "32"
      }
    }
  }
}